{
	"Hotel/HotelRoom.sol": {
		"HotelRoom": {
			"abi": [
				{
					"inputs": [],
					"stateMutability": "nonpayable",
					"type": "constructor"
				},
				{
					"anonymous": false,
					"inputs": [
						{
							"indexed": false,
							"internalType": "address",
							"name": "_occupant",
							"type": "address"
						},
						{
							"indexed": false,
							"internalType": "uint256",
							"name": "_value",
							"type": "uint256"
						}
					],
					"name": "Occupy",
					"type": "event"
				},
				{
					"inputs": [],
					"name": "book",
					"outputs": [],
					"stateMutability": "payable",
					"type": "function"
				},
				{
					"inputs": [],
					"name": "currentStatus",
					"outputs": [
						{
							"internalType": "enum HotelRoom.Statuses",
							"name": "",
							"type": "uint8"
						}
					],
					"stateMutability": "view",
					"type": "function"
				},
				{
					"inputs": [],
					"name": "owner",
					"outputs": [
						{
							"internalType": "address payable",
							"name": "",
							"type": "address"
						}
					],
					"stateMutability": "view",
					"type": "function"
				}
			],
			"devdoc": {
				"kind": "dev",
				"methods": {},
				"version": 1
			},
			"evm": {
				"assembly": "    /* \"Hotel/HotelRoom.sol\":58:2697  contract HotelRoom {... */\n  mstore(0x40, 0x80)\n    /* \"Hotel/HotelRoom.sol\":609:846  constructor() {... */\n  callvalue\n  dup1\n  iszero\n  tag_1\n  jumpi\n  0x00\n  dup1\n  revert\ntag_1:\n  pop\n    /* \"Hotel/HotelRoom.sol\":649:659  msg.sender */\n  caller\n    /* \"Hotel/HotelRoom.sol\":633:638  owner */\n  0x00\n  0x01\n    /* \"Hotel/HotelRoom.sol\":633:660  owner = payable(msg.sender) */\n  0x0100\n  exp\n  dup2\n  sload\n  dup2\n  0xffffffffffffffffffffffffffffffffffffffff\n  mul\n  not\n  and\n  swap1\n  dup4\n  0xffffffffffffffffffffffffffffffffffffffff\n  and\n  mul\n  or\n  swap1\n  sstore\n  pop\n    /* \"Hotel/HotelRoom.sol\":781:796  Statuses.Vacant */\n  0x00\n    /* \"Hotel/HotelRoom.sol\":765:778  currentStatus */\n  dup1\n  0x00\n    /* \"Hotel/HotelRoom.sol\":765:796  currentStatus = Statuses.Vacant */\n  0x0100\n  exp\n  dup2\n  sload\n  dup2\n  0xff\n  mul\n  not\n  and\n  swap1\n  dup4\n  0x01\n  dup2\n  gt\n  iszero\n  tag_4\n  jumpi\n  tag_5\n  tag_6\n  jump\t// in\ntag_5:\ntag_4:\n  mul\n  or\n  swap1\n  sstore\n  pop\n    /* \"Hotel/HotelRoom.sol\":58:2697  contract HotelRoom {... */\n  jump(tag_7)\n    /* \"#utility.yul\":7:187   */\ntag_6:\n    /* \"#utility.yul\":55:132   */\n  0x4e487b7100000000000000000000000000000000000000000000000000000000\n    /* \"#utility.yul\":52:53   */\n  0x00\n    /* \"#utility.yul\":45:133   */\n  mstore\n    /* \"#utility.yul\":152:156   */\n  0x21\n    /* \"#utility.yul\":149:150   */\n  0x04\n    /* \"#utility.yul\":142:157   */\n  mstore\n    /* \"#utility.yul\":176:180   */\n  0x24\n    /* \"#utility.yul\":173:174   */\n  0x00\n    /* \"#utility.yul\":166:181   */\n  revert\n    /* \"Hotel/HotelRoom.sol\":58:2697  contract HotelRoom {... */\ntag_7:\n  dataSize(sub_0)\n  dup1\n  dataOffset(sub_0)\n  0x00\n  codecopy\n  0x00\n  return\nstop\n\nsub_0: assembly {\n        /* \"Hotel/HotelRoom.sol\":58:2697  contract HotelRoom {... */\n      mstore(0x40, 0x80)\n      jumpi(tag_1, lt(calldatasize, 0x04))\n      shr(0xe0, calldataload(0x00))\n      dup1\n      0x05a8da72\n      eq\n      tag_2\n      jumpi\n      dup1\n      0x8da5cb5b\n      eq\n      tag_3\n      jumpi\n      dup1\n      0xef8a9235\n      eq\n      tag_4\n      jumpi\n    tag_1:\n      0x00\n      dup1\n      revert\n        /* \"Hotel/HotelRoom.sol\":1636:2692  function book() public status costs(2 ether) payable {... */\n    tag_2:\n      tag_5\n      tag_6\n      jump\t// in\n    tag_5:\n      stop\n        /* \"Hotel/HotelRoom.sol\":502:530  address payable public owner */\n    tag_3:\n      callvalue\n      dup1\n      iszero\n      tag_7\n      jumpi\n      0x00\n      dup1\n      revert\n    tag_7:\n      pop\n      tag_8\n      tag_9\n      jump\t// in\n    tag_8:\n      mload(0x40)\n      tag_10\n      swap2\n      swap1\n      tag_11\n      jump\t// in\n    tag_10:\n      mload(0x40)\n      dup1\n      swap2\n      sub\n      swap1\n      return\n        /* \"Hotel/HotelRoom.sol\":219:248  Statuses public currentStatus */\n    tag_4:\n      callvalue\n      dup1\n      iszero\n      tag_12\n      jumpi\n      0x00\n      dup1\n      revert\n    tag_12:\n      pop\n      tag_13\n      tag_14\n      jump\t// in\n    tag_13:\n      mload(0x40)\n      tag_15\n      swap2\n      swap1\n      tag_16\n      jump\t// in\n    tag_15:\n      mload(0x40)\n      dup1\n      swap2\n      sub\n      swap1\n      return\n        /* \"Hotel/HotelRoom.sol\":1636:2692  function book() public status costs(2 ether) payable {... */\n    tag_6:\n        /* \"Hotel/HotelRoom.sol\":1054:1064  msg.sender */\n      caller\n        /* \"Hotel/HotelRoom.sol\":1045:1064  owner != msg.sender */\n      0xffffffffffffffffffffffffffffffffffffffff\n      and\n        /* \"Hotel/HotelRoom.sol\":1045:1050  owner */\n      0x00\n      0x01\n      swap1\n      sload\n      swap1\n      0x0100\n      exp\n      swap1\n      div\n      0xffffffffffffffffffffffffffffffffffffffff\n      and\n        /* \"Hotel/HotelRoom.sol\":1045:1064  owner != msg.sender */\n      0xffffffffffffffffffffffffffffffffffffffff\n      and\n      sub\n        /* \"Hotel/HotelRoom.sol\":1037:1097  require(owner != msg.sender, \"You can't book your own room\") */\n      tag_18\n      jumpi\n      mload(0x40)\n      0x08c379a000000000000000000000000000000000000000000000000000000000\n      dup2\n      mstore\n      0x04\n      add\n      tag_19\n      swap1\n      tag_20\n      jump\t// in\n    tag_19:\n      mload(0x40)\n      dup1\n      swap2\n      sub\n      swap1\n      revert\n    tag_18:\n        /* \"Hotel/HotelRoom.sol\":1203:1218  Statuses.Vacant */\n      0x00\n        /* \"Hotel/HotelRoom.sol\":1186:1218  currentStatus == Statuses.Vacant */\n      0x01\n      dup2\n      gt\n      iszero\n      tag_21\n      jumpi\n      tag_22\n      tag_23\n      jump\t// in\n    tag_22:\n    tag_21:\n        /* \"Hotel/HotelRoom.sol\":1186:1199  currentStatus */\n      0x00\n      dup1\n      sload\n      swap1\n      0x0100\n      exp\n      swap1\n      div\n      0xff\n      and\n        /* \"Hotel/HotelRoom.sol\":1186:1218  currentStatus == Statuses.Vacant */\n      0x01\n      dup2\n      gt\n      iszero\n      tag_24\n      jumpi\n      tag_25\n      tag_23\n      jump\t// in\n    tag_25:\n    tag_24:\n      eq\n        /* \"Hotel/HotelRoom.sol\":1178:1241  require(currentStatus == Statuses.Vacant, \"Currently occupied\") */\n      tag_26\n      jumpi\n      mload(0x40)\n      0x08c379a000000000000000000000000000000000000000000000000000000000\n      dup2\n      mstore\n      0x04\n      add\n      tag_27\n      swap1\n      tag_28\n      jump\t// in\n    tag_27:\n      mload(0x40)\n      dup1\n      swap2\n      sub\n      swap1\n      revert\n    tag_26:\n        /* \"Hotel/HotelRoom.sol\":1672:1679  2 ether */\n      0x1bc16d674ec80000\n        /* \"Hotel/HotelRoom.sol\":1533:1540  _amount */\n      dup1\n        /* \"Hotel/HotelRoom.sol\":1520:1529  msg.value */\n      callvalue\n        /* \"Hotel/HotelRoom.sol\":1520:1540  msg.value >= _amount */\n      lt\n      iszero\n        /* \"Hotel/HotelRoom.sol\":1512:1571  require(msg.value >= _amount, \"Not enough ether provided.\") */\n      tag_30\n      jumpi\n      mload(0x40)\n      0x08c379a000000000000000000000000000000000000000000000000000000000\n      dup2\n      mstore\n      0x04\n      add\n      tag_31\n      swap1\n      tag_32\n      jump\t// in\n    tag_31:\n      mload(0x40)\n      dup1\n      swap2\n      sub\n      swap1\n      revert\n    tag_30:\n        /* \"Hotel/HotelRoom.sol\":2074:2083  bool sent */\n      0x00\n        /* \"Hotel/HotelRoom.sol\":2110:2115  owner */\n      dup1\n      0x01\n      swap1\n      sload\n      swap1\n      0x0100\n      exp\n      swap1\n      div\n      0xffffffffffffffffffffffffffffffffffffffff\n      and\n        /* \"Hotel/HotelRoom.sol\":2110:2120  owner.call */\n      0xffffffffffffffffffffffffffffffffffffffff\n      and\n        /* \"Hotel/HotelRoom.sol\":2128:2137  msg.value */\n      callvalue\n        /* \"Hotel/HotelRoom.sol\":2110:2159  owner.call{value: msg.value}(\"For booking hotel\") */\n      mload(0x40)\n      tag_34\n      swap1\n      tag_35\n      jump\t// in\n    tag_34:\n      0x00\n      mload(0x40)\n      dup1\n      dup4\n      sub\n      dup2\n      dup6\n      dup8\n      gas\n      call\n      swap3\n      pop\n      pop\n      pop\n      returndatasize\n      dup1\n      0x00\n      dup2\n      eq\n      tag_38\n      jumpi\n      mload(0x40)\n      swap2\n      pop\n      and(add(returndatasize, 0x3f), not(0x1f))\n      dup3\n      add\n      0x40\n      mstore\n      returndatasize\n      dup3\n      mstore\n      returndatasize\n      0x00\n      0x20\n      dup5\n      add\n      returndatacopy\n      jump(tag_37)\n    tag_38:\n      0x60\n      swap2\n      pop\n    tag_37:\n      pop\n        /* \"Hotel/HotelRoom.sol\":2073:2159  (bool sent, /*bytes memory data*/) = owner.call{value: msg.value}(\"For booking hotel\") */\n      pop\n      swap1\n      pop\n        /* \"Hotel/HotelRoom.sol\":2506:2510  true */\n      0x01\n        /* \"Hotel/HotelRoom.sol\":2498:2510  sent == true */\n      iszero\n      iszero\n        /* \"Hotel/HotelRoom.sol\":2498:2502  sent */\n      dup2\n        /* \"Hotel/HotelRoom.sol\":2498:2510  sent == true */\n      iszero\n      iszero\n      eq\n        /* \"Hotel/HotelRoom.sol\":2490:2511  require(sent == true) */\n      tag_39\n      jumpi\n      0x00\n      dup1\n      revert\n    tag_39:\n        /* \"Hotel/HotelRoom.sol\":2539:2556  Statuses.Occupied */\n      0x01\n        /* \"Hotel/HotelRoom.sol\":2523:2536  currentStatus */\n      0x00\n      dup1\n        /* \"Hotel/HotelRoom.sol\":2523:2556  currentStatus = Statuses.Occupied */\n      0x0100\n      exp\n      dup2\n      sload\n      dup2\n      0xff\n      mul\n      not\n      and\n      swap1\n      dup4\n      0x01\n      dup2\n      gt\n      iszero\n      tag_40\n      jumpi\n      tag_41\n      tag_23\n      jump\t// in\n    tag_41:\n    tag_40:\n      mul\n      or\n      swap1\n      sstore\n      pop\n        /* \"Hotel/HotelRoom.sol\":2596:2625  Occupy(msg.sender, msg.value) */\n      0xba951166d42eb077151bdecb7cf6027562f04f0143b0c141b1bb0a33eef5d693\n        /* \"Hotel/HotelRoom.sol\":2603:2613  msg.sender */\n      caller\n        /* \"Hotel/HotelRoom.sol\":2615:2624  msg.value */\n      callvalue\n        /* \"Hotel/HotelRoom.sol\":2596:2625  Occupy(msg.sender, msg.value) */\n      mload(0x40)\n      tag_42\n      swap3\n      swap2\n      swap1\n      tag_43\n      jump\t// in\n    tag_42:\n      mload(0x40)\n      dup1\n      swap2\n      sub\n      swap1\n      log1\n        /* \"Hotel/HotelRoom.sol\":1689:2692  {... */\n      pop\n        /* \"Hotel/HotelRoom.sol\":1295:1296  _ */\n      pop\n        /* \"Hotel/HotelRoom.sol\":1636:2692  function book() public status costs(2 ether) payable {... */\n      jump\t// out\n        /* \"Hotel/HotelRoom.sol\":502:530  address payable public owner */\n    tag_9:\n      0x00\n      0x01\n      swap1\n      sload\n      swap1\n      0x0100\n      exp\n      swap1\n      div\n      0xffffffffffffffffffffffffffffffffffffffff\n      and\n      dup2\n      jump\t// out\n        /* \"Hotel/HotelRoom.sol\":219:248  Statuses public currentStatus */\n    tag_14:\n      0x00\n      dup1\n      sload\n      swap1\n      0x0100\n      exp\n      swap1\n      div\n      0xff\n      and\n      dup2\n      jump\t// out\n        /* \"#utility.yul\":7:133   */\n    tag_44:\n        /* \"#utility.yul\":44:51   */\n      0x00\n        /* \"#utility.yul\":84:126   */\n      0xffffffffffffffffffffffffffffffffffffffff\n        /* \"#utility.yul\":77:82   */\n      dup3\n        /* \"#utility.yul\":73:127   */\n      and\n        /* \"#utility.yul\":62:127   */\n      swap1\n      pop\n        /* \"#utility.yul\":7:133   */\n      swap2\n      swap1\n      pop\n      jump\t// out\n        /* \"#utility.yul\":139:243   */\n    tag_45:\n        /* \"#utility.yul\":184:191   */\n      0x00\n        /* \"#utility.yul\":213:237   */\n      tag_68\n        /* \"#utility.yul\":231:236   */\n      dup3\n        /* \"#utility.yul\":213:237   */\n      tag_44\n      jump\t// in\n    tag_68:\n        /* \"#utility.yul\":202:237   */\n      swap1\n      pop\n        /* \"#utility.yul\":139:243   */\n      swap2\n      swap1\n      pop\n      jump\t// out\n        /* \"#utility.yul\":249:391   */\n    tag_46:\n        /* \"#utility.yul\":352:384   */\n      tag_70\n        /* \"#utility.yul\":378:383   */\n      dup2\n        /* \"#utility.yul\":352:384   */\n      tag_45\n      jump\t// in\n    tag_70:\n        /* \"#utility.yul\":347:350   */\n      dup3\n        /* \"#utility.yul\":340:385   */\n      mstore\n        /* \"#utility.yul\":249:391   */\n      pop\n      pop\n      jump\t// out\n        /* \"#utility.yul\":397:651   */\n    tag_11:\n        /* \"#utility.yul\":506:510   */\n      0x00\n        /* \"#utility.yul\":544:546   */\n      0x20\n        /* \"#utility.yul\":533:542   */\n      dup3\n        /* \"#utility.yul\":529:547   */\n      add\n        /* \"#utility.yul\":521:547   */\n      swap1\n      pop\n        /* \"#utility.yul\":557:644   */\n      tag_72\n        /* \"#utility.yul\":641:642   */\n      0x00\n        /* \"#utility.yul\":630:639   */\n      dup4\n        /* \"#utility.yul\":626:643   */\n      add\n        /* \"#utility.yul\":617:623   */\n      dup5\n        /* \"#utility.yul\":557:644   */\n      tag_46\n      jump\t// in\n    tag_72:\n        /* \"#utility.yul\":397:651   */\n      swap3\n      swap2\n      pop\n      pop\n      jump\t// out\n        /* \"#utility.yul\":657:837   */\n    tag_23:\n        /* \"#utility.yul\":705:782   */\n      0x4e487b7100000000000000000000000000000000000000000000000000000000\n        /* \"#utility.yul\":702:703   */\n      0x00\n        /* \"#utility.yul\":695:783   */\n      mstore\n        /* \"#utility.yul\":802:806   */\n      0x21\n        /* \"#utility.yul\":799:800   */\n      0x04\n        /* \"#utility.yul\":792:807   */\n      mstore\n        /* \"#utility.yul\":826:830   */\n      0x24\n        /* \"#utility.yul\":823:824   */\n      0x00\n        /* \"#utility.yul\":816:831   */\n      revert\n        /* \"#utility.yul\":843:958   */\n    tag_47:\n        /* \"#utility.yul\":926:927   */\n      0x02\n        /* \"#utility.yul\":919:924   */\n      dup2\n        /* \"#utility.yul\":916:928   */\n      lt\n        /* \"#utility.yul\":906:952   */\n      tag_75\n      jumpi\n        /* \"#utility.yul\":932:950   */\n      tag_76\n      tag_23\n      jump\t// in\n    tag_76:\n        /* \"#utility.yul\":906:952   */\n    tag_75:\n        /* \"#utility.yul\":843:958   */\n      pop\n      jump\t// out\n        /* \"#utility.yul\":964:1095   */\n    tag_48:\n        /* \"#utility.yul\":1011:1018   */\n      0x00\n        /* \"#utility.yul\":1040:1045   */\n      dup2\n        /* \"#utility.yul\":1029:1045   */\n      swap1\n      pop\n        /* \"#utility.yul\":1046:1089   */\n      tag_78\n        /* \"#utility.yul\":1083:1088   */\n      dup3\n        /* \"#utility.yul\":1046:1089   */\n      tag_47\n      jump\t// in\n    tag_78:\n        /* \"#utility.yul\":964:1095   */\n      swap2\n      swap1\n      pop\n      jump\t// out\n        /* \"#utility.yul\":1101:1232   */\n    tag_49:\n        /* \"#utility.yul\":1159:1168   */\n      0x00\n        /* \"#utility.yul\":1192:1226   */\n      tag_80\n        /* \"#utility.yul\":1220:1225   */\n      dup3\n        /* \"#utility.yul\":1192:1226   */\n      tag_48\n      jump\t// in\n    tag_80:\n        /* \"#utility.yul\":1179:1226   */\n      swap1\n      pop\n        /* \"#utility.yul\":1101:1232   */\n      swap2\n      swap1\n      pop\n      jump\t// out\n        /* \"#utility.yul\":1238:1385   */\n    tag_50:\n        /* \"#utility.yul\":1333:1378   */\n      tag_82\n        /* \"#utility.yul\":1372:1377   */\n      dup2\n        /* \"#utility.yul\":1333:1378   */\n      tag_49\n      jump\t// in\n    tag_82:\n        /* \"#utility.yul\":1328:1331   */\n      dup3\n        /* \"#utility.yul\":1321:1379   */\n      mstore\n        /* \"#utility.yul\":1238:1385   */\n      pop\n      pop\n      jump\t// out\n        /* \"#utility.yul\":1391:1629   */\n    tag_16:\n        /* \"#utility.yul\":1492:1496   */\n      0x00\n        /* \"#utility.yul\":1530:1532   */\n      0x20\n        /* \"#utility.yul\":1519:1528   */\n      dup3\n        /* \"#utility.yul\":1515:1533   */\n      add\n        /* \"#utility.yul\":1507:1533   */\n      swap1\n      pop\n        /* \"#utility.yul\":1543:1622   */\n      tag_84\n        /* \"#utility.yul\":1619:1620   */\n      0x00\n        /* \"#utility.yul\":1608:1617   */\n      dup4\n        /* \"#utility.yul\":1604:1621   */\n      add\n        /* \"#utility.yul\":1595:1601   */\n      dup5\n        /* \"#utility.yul\":1543:1622   */\n      tag_50\n      jump\t// in\n    tag_84:\n        /* \"#utility.yul\":1391:1629   */\n      swap3\n      swap2\n      pop\n      pop\n      jump\t// out\n        /* \"#utility.yul\":1635:1804   */\n    tag_51:\n        /* \"#utility.yul\":1719:1730   */\n      0x00\n        /* \"#utility.yul\":1753:1759   */\n      dup3\n        /* \"#utility.yul\":1748:1751   */\n      dup3\n        /* \"#utility.yul\":1741:1760   */\n      mstore\n        /* \"#utility.yul\":1793:1797   */\n      0x20\n        /* \"#utility.yul\":1788:1791   */\n      dup3\n        /* \"#utility.yul\":1784:1798   */\n      add\n        /* \"#utility.yul\":1769:1798   */\n      swap1\n      pop\n        /* \"#utility.yul\":1635:1804   */\n      swap3\n      swap2\n      pop\n      pop\n      jump\t// out\n        /* \"#utility.yul\":1810:1988   */\n    tag_52:\n        /* \"#utility.yul\":1950:1980   */\n      0x596f752063616e277420626f6f6b20796f7572206f776e20726f6f6d00000000\n        /* \"#utility.yul\":1946:1947   */\n      0x00\n        /* \"#utility.yul\":1938:1944   */\n      dup3\n        /* \"#utility.yul\":1934:1948   */\n      add\n        /* \"#utility.yul\":1927:1981   */\n      mstore\n        /* \"#utility.yul\":1810:1988   */\n      pop\n      jump\t// out\n        /* \"#utility.yul\":1994:2360   */\n    tag_53:\n        /* \"#utility.yul\":2136:2139   */\n      0x00\n        /* \"#utility.yul\":2157:2224   */\n      tag_88\n        /* \"#utility.yul\":2221:2223   */\n      0x1c\n        /* \"#utility.yul\":2216:2219   */\n      dup4\n        /* \"#utility.yul\":2157:2224   */\n      tag_51\n      jump\t// in\n    tag_88:\n        /* \"#utility.yul\":2150:2224   */\n      swap2\n      pop\n        /* \"#utility.yul\":2233:2326   */\n      tag_89\n        /* \"#utility.yul\":2322:2325   */\n      dup3\n        /* \"#utility.yul\":2233:2326   */\n      tag_52\n      jump\t// in\n    tag_89:\n        /* \"#utility.yul\":2351:2353   */\n      0x20\n        /* \"#utility.yul\":2346:2349   */\n      dup3\n        /* \"#utility.yul\":2342:2354   */\n      add\n        /* \"#utility.yul\":2335:2354   */\n      swap1\n      pop\n        /* \"#utility.yul\":1994:2360   */\n      swap2\n      swap1\n      pop\n      jump\t// out\n        /* \"#utility.yul\":2366:2785   */\n    tag_20:\n        /* \"#utility.yul\":2532:2536   */\n      0x00\n        /* \"#utility.yul\":2570:2572   */\n      0x20\n        /* \"#utility.yul\":2559:2568   */\n      dup3\n        /* \"#utility.yul\":2555:2573   */\n      add\n        /* \"#utility.yul\":2547:2573   */\n      swap1\n      pop\n        /* \"#utility.yul\":2619:2628   */\n      dup2\n        /* \"#utility.yul\":2613:2617   */\n      dup2\n        /* \"#utility.yul\":2609:2629   */\n      sub\n        /* \"#utility.yul\":2605:2606   */\n      0x00\n        /* \"#utility.yul\":2594:2603   */\n      dup4\n        /* \"#utility.yul\":2590:2607   */\n      add\n        /* \"#utility.yul\":2583:2630   */\n      mstore\n        /* \"#utility.yul\":2647:2778   */\n      tag_91\n        /* \"#utility.yul\":2773:2777   */\n      dup2\n        /* \"#utility.yul\":2647:2778   */\n      tag_53\n      jump\t// in\n    tag_91:\n        /* \"#utility.yul\":2639:2778   */\n      swap1\n      pop\n        /* \"#utility.yul\":2366:2785   */\n      swap2\n      swap1\n      pop\n      jump\t// out\n        /* \"#utility.yul\":2791:2959   */\n    tag_54:\n        /* \"#utility.yul\":2931:2951   */\n      0x43757272656e746c79206f636375706965640000000000000000000000000000\n        /* \"#utility.yul\":2927:2928   */\n      0x00\n        /* \"#utility.yul\":2919:2925   */\n      dup3\n        /* \"#utility.yul\":2915:2929   */\n      add\n        /* \"#utility.yul\":2908:2952   */\n      mstore\n        /* \"#utility.yul\":2791:2959   */\n      pop\n      jump\t// out\n        /* \"#utility.yul\":2965:3331   */\n    tag_55:\n        /* \"#utility.yul\":3107:3110   */\n      0x00\n        /* \"#utility.yul\":3128:3195   */\n      tag_94\n        /* \"#utility.yul\":3192:3194   */\n      0x12\n        /* \"#utility.yul\":3187:3190   */\n      dup4\n        /* \"#utility.yul\":3128:3195   */\n      tag_51\n      jump\t// in\n    tag_94:\n        /* \"#utility.yul\":3121:3195   */\n      swap2\n      pop\n        /* \"#utility.yul\":3204:3297   */\n      tag_95\n        /* \"#utility.yul\":3293:3296   */\n      dup3\n        /* \"#utility.yul\":3204:3297   */\n      tag_54\n      jump\t// in\n    tag_95:\n        /* \"#utility.yul\":3322:3324   */\n      0x20\n        /* \"#utility.yul\":3317:3320   */\n      dup3\n        /* \"#utility.yul\":3313:3325   */\n      add\n        /* \"#utility.yul\":3306:3325   */\n      swap1\n      pop\n        /* \"#utility.yul\":2965:3331   */\n      swap2\n      swap1\n      pop\n      jump\t// out\n        /* \"#utility.yul\":3337:3756   */\n    tag_28:\n        /* \"#utility.yul\":3503:3507   */\n      0x00\n        /* \"#utility.yul\":3541:3543   */\n      0x20\n        /* \"#utility.yul\":3530:3539   */\n      dup3\n        /* \"#utility.yul\":3526:3544   */\n      add\n        /* \"#utility.yul\":3518:3544   */\n      swap1\n      pop\n        /* \"#utility.yul\":3590:3599   */\n      dup2\n        /* \"#utility.yul\":3584:3588   */\n      dup2\n        /* \"#utility.yul\":3580:3600   */\n      sub\n        /* \"#utility.yul\":3576:3577   */\n      0x00\n        /* \"#utility.yul\":3565:3574   */\n      dup4\n        /* \"#utility.yul\":3561:3578   */\n      add\n        /* \"#utility.yul\":3554:3601   */\n      mstore\n        /* \"#utility.yul\":3618:3749   */\n      tag_97\n        /* \"#utility.yul\":3744:3748   */\n      dup2\n        /* \"#utility.yul\":3618:3749   */\n      tag_55\n      jump\t// in\n    tag_97:\n        /* \"#utility.yul\":3610:3749   */\n      swap1\n      pop\n        /* \"#utility.yul\":3337:3756   */\n      swap2\n      swap1\n      pop\n      jump\t// out\n        /* \"#utility.yul\":3762:3938   */\n    tag_56:\n        /* \"#utility.yul\":3902:3930   */\n      0x4e6f7420656e6f7567682065746865722070726f76696465642e000000000000\n        /* \"#utility.yul\":3898:3899   */\n      0x00\n        /* \"#utility.yul\":3890:3896   */\n      dup3\n        /* \"#utility.yul\":3886:3900   */\n      add\n        /* \"#utility.yul\":3879:3931   */\n      mstore\n        /* \"#utility.yul\":3762:3938   */\n      pop\n      jump\t// out\n        /* \"#utility.yul\":3944:4310   */\n    tag_57:\n        /* \"#utility.yul\":4086:4089   */\n      0x00\n        /* \"#utility.yul\":4107:4174   */\n      tag_100\n        /* \"#utility.yul\":4171:4173   */\n      0x1a\n        /* \"#utility.yul\":4166:4169   */\n      dup4\n        /* \"#utility.yul\":4107:4174   */\n      tag_51\n      jump\t// in\n    tag_100:\n        /* \"#utility.yul\":4100:4174   */\n      swap2\n      pop\n        /* \"#utility.yul\":4183:4276   */\n      tag_101\n        /* \"#utility.yul\":4272:4275   */\n      dup3\n        /* \"#utility.yul\":4183:4276   */\n      tag_56\n      jump\t// in\n    tag_101:\n        /* \"#utility.yul\":4301:4303   */\n      0x20\n        /* \"#utility.yul\":4296:4299   */\n      dup3\n        /* \"#utility.yul\":4292:4304   */\n      add\n        /* \"#utility.yul\":4285:4304   */\n      swap1\n      pop\n        /* \"#utility.yul\":3944:4310   */\n      swap2\n      swap1\n      pop\n      jump\t// out\n        /* \"#utility.yul\":4316:4735   */\n    tag_32:\n        /* \"#utility.yul\":4482:4486   */\n      0x00\n        /* \"#utility.yul\":4520:4522   */\n      0x20\n        /* \"#utility.yul\":4509:4518   */\n      dup3\n        /* \"#utility.yul\":4505:4523   */\n      add\n        /* \"#utility.yul\":4497:4523   */\n      swap1\n      pop\n        /* \"#utility.yul\":4569:4578   */\n      dup2\n        /* \"#utility.yul\":4563:4567   */\n      dup2\n        /* \"#utility.yul\":4559:4579   */\n      sub\n        /* \"#utility.yul\":4555:4556   */\n      0x00\n        /* \"#utility.yul\":4544:4553   */\n      dup4\n        /* \"#utility.yul\":4540:4557   */\n      add\n        /* \"#utility.yul\":4533:4580   */\n      mstore\n        /* \"#utility.yul\":4597:4728   */\n      tag_103\n        /* \"#utility.yul\":4723:4727   */\n      dup2\n        /* \"#utility.yul\":4597:4728   */\n      tag_57\n      jump\t// in\n    tag_103:\n        /* \"#utility.yul\":4589:4728   */\n      swap1\n      pop\n        /* \"#utility.yul\":4316:4735   */\n      swap2\n      swap1\n      pop\n      jump\t// out\n        /* \"#utility.yul\":4741:4888   */\n    tag_58:\n        /* \"#utility.yul\":4842:4853   */\n      0x00\n        /* \"#utility.yul\":4879:4882   */\n      dup2\n        /* \"#utility.yul\":4864:4882   */\n      swap1\n      pop\n        /* \"#utility.yul\":4741:4888   */\n      swap3\n      swap2\n      pop\n      pop\n      jump\t// out\n        /* \"#utility.yul\":4894:5061   */\n    tag_59:\n        /* \"#utility.yul\":5034:5053   */\n      0x466f7220626f6f6b696e6720686f74656c000000000000000000000000000000\n        /* \"#utility.yul\":5030:5031   */\n      0x00\n        /* \"#utility.yul\":5022:5028   */\n      dup3\n        /* \"#utility.yul\":5018:5032   */\n      add\n        /* \"#utility.yul\":5011:5054   */\n      mstore\n        /* \"#utility.yul\":4894:5061   */\n      pop\n      jump\t// out\n        /* \"#utility.yul\":5067:5467   */\n    tag_60:\n        /* \"#utility.yul\":5226:5229   */\n      0x00\n        /* \"#utility.yul\":5247:5331   */\n      tag_107\n        /* \"#utility.yul\":5328:5330   */\n      0x11\n        /* \"#utility.yul\":5323:5326   */\n      dup4\n        /* \"#utility.yul\":5247:5331   */\n      tag_58\n      jump\t// in\n    tag_107:\n        /* \"#utility.yul\":5240:5331   */\n      swap2\n      pop\n        /* \"#utility.yul\":5340:5433   */\n      tag_108\n        /* \"#utility.yul\":5429:5432   */\n      dup3\n        /* \"#utility.yul\":5340:5433   */\n      tag_59\n      jump\t// in\n    tag_108:\n        /* \"#utility.yul\":5458:5460   */\n      0x11\n        /* \"#utility.yul\":5453:5456   */\n      dup3\n        /* \"#utility.yul\":5449:5461   */\n      add\n        /* \"#utility.yul\":5442:5461   */\n      swap1\n      pop\n        /* \"#utility.yul\":5067:5467   */\n      swap2\n      swap1\n      pop\n      jump\t// out\n        /* \"#utility.yul\":5473:5852   */\n    tag_35:\n        /* \"#utility.yul\":5657:5660   */\n      0x00\n        /* \"#utility.yul\":5679:5826   */\n      tag_110\n        /* \"#utility.yul\":5822:5825   */\n      dup3\n        /* \"#utility.yul\":5679:5826   */\n      tag_60\n      jump\t// in\n    tag_110:\n        /* \"#utility.yul\":5672:5826   */\n      swap2\n      pop\n        /* \"#utility.yul\":5843:5846   */\n      dup2\n        /* \"#utility.yul\":5836:5846   */\n      swap1\n      pop\n        /* \"#utility.yul\":5473:5852   */\n      swap2\n      swap1\n      pop\n      jump\t// out\n        /* \"#utility.yul\":5858:5954   */\n    tag_61:\n        /* \"#utility.yul\":5895:5902   */\n      0x00\n        /* \"#utility.yul\":5924:5948   */\n      tag_112\n        /* \"#utility.yul\":5942:5947   */\n      dup3\n        /* \"#utility.yul\":5924:5948   */\n      tag_44\n      jump\t// in\n    tag_112:\n        /* \"#utility.yul\":5913:5948   */\n      swap1\n      pop\n        /* \"#utility.yul\":5858:5954   */\n      swap2\n      swap1\n      pop\n      jump\t// out\n        /* \"#utility.yul\":5960:6078   */\n    tag_62:\n        /* \"#utility.yul\":6047:6071   */\n      tag_114\n        /* \"#utility.yul\":6065:6070   */\n      dup2\n        /* \"#utility.yul\":6047:6071   */\n      tag_61\n      jump\t// in\n    tag_114:\n        /* \"#utility.yul\":6042:6045   */\n      dup3\n        /* \"#utility.yul\":6035:6072   */\n      mstore\n        /* \"#utility.yul\":5960:6078   */\n      pop\n      pop\n      jump\t// out\n        /* \"#utility.yul\":6084:6161   */\n    tag_63:\n        /* \"#utility.yul\":6121:6128   */\n      0x00\n        /* \"#utility.yul\":6150:6155   */\n      dup2\n        /* \"#utility.yul\":6139:6155   */\n      swap1\n      pop\n        /* \"#utility.yul\":6084:6161   */\n      swap2\n      swap1\n      pop\n      jump\t// out\n        /* \"#utility.yul\":6167:6285   */\n    tag_64:\n        /* \"#utility.yul\":6254:6278   */\n      tag_117\n        /* \"#utility.yul\":6272:6277   */\n      dup2\n        /* \"#utility.yul\":6254:6278   */\n      tag_63\n      jump\t// in\n    tag_117:\n        /* \"#utility.yul\":6249:6252   */\n      dup3\n        /* \"#utility.yul\":6242:6279   */\n      mstore\n        /* \"#utility.yul\":6167:6285   */\n      pop\n      pop\n      jump\t// out\n        /* \"#utility.yul\":6291:6623   */\n    tag_43:\n        /* \"#utility.yul\":6412:6416   */\n      0x00\n        /* \"#utility.yul\":6450:6452   */\n      0x40\n        /* \"#utility.yul\":6439:6448   */\n      dup3\n        /* \"#utility.yul\":6435:6453   */\n      add\n        /* \"#utility.yul\":6427:6453   */\n      swap1\n      pop\n        /* \"#utility.yul\":6463:6534   */\n      tag_119\n        /* \"#utility.yul\":6531:6532   */\n      0x00\n        /* \"#utility.yul\":6520:6529   */\n      dup4\n        /* \"#utility.yul\":6516:6533   */\n      add\n        /* \"#utility.yul\":6507:6513   */\n      dup6\n        /* \"#utility.yul\":6463:6534   */\n      tag_62\n      jump\t// in\n    tag_119:\n        /* \"#utility.yul\":6544:6616   */\n      tag_120\n        /* \"#utility.yul\":6612:6614   */\n      0x20\n        /* \"#utility.yul\":6601:6610   */\n      dup4\n        /* \"#utility.yul\":6597:6615   */\n      add\n        /* \"#utility.yul\":6588:6594   */\n      dup5\n        /* \"#utility.yul\":6544:6616   */\n      tag_64\n      jump\t// in\n    tag_120:\n        /* \"#utility.yul\":6291:6623   */\n      swap4\n      swap3\n      pop\n      pop\n      pop\n      jump\t// out\n\n    auxdata: 0xa2646970667358221220fa13238320b6cd09aa47d7c9925d5f307e2e592fbf335b150756dbce18084c3b64736f6c634300081a0033\n}\n",
				"bytecode": {
					"linkReferences": {},
					"object": "6080604052348015600e575f80fd5b50335f60016101000a81548173ffffffffffffffffffffffffffffffffffffffff021916908373ffffffffffffffffffffffffffffffffffffffff1602179055505f805f6101000a81548160ff02191690836001811115606f57606e6078565b5b021790555060a5565b7f4e487b71000000000000000000000000000000000000000000000000000000005f52602160045260245ffd5b61063f806100b25f395ff3fe608060405260043610610033575f3560e01c806305a8da72146100375780638da5cb5b14610041578063ef8a92351461006b575b5f80fd5b61003f610095565b005b34801561004c575f80fd5b506100556102e1565b6040516100629190610355565b60405180910390f35b348015610076575f80fd5b5061007f610306565b60405161008c91906103e1565b60405180910390f35b3373ffffffffffffffffffffffffffffffffffffffff165f60019054906101000a900473ffffffffffffffffffffffffffffffffffffffff1673ffffffffffffffffffffffffffffffffffffffff1603610124576040517f08c379a000000000000000000000000000000000000000000000000000000000815260040161011b90610454565b60405180910390fd5b5f60018111156101375761013661036e565b5b5f8054906101000a900460ff1660018111156101565761015561036e565b5b14610196576040517f08c379a000000000000000000000000000000000000000000000000000000000815260040161018d906104bc565b60405180910390fd5b671bc16d674ec80000803410156101e2576040517f08c379a00000000000000000000000000000000000000000000000000000000081526004016101d990610524565b60405180910390fd5b5f8060019054906101000a900473ffffffffffffffffffffffffffffffffffffffff1673ffffffffffffffffffffffffffffffffffffffff163460405161022890610596565b5f6040518083038185875af1925050503d805f8114610262576040519150601f19603f3d011682016040523d82523d5f602084013e610267565b606091505b50509050600115158115151461027b575f80fd5b60015f806101000a81548160ff0219169083600181111561029f5761029e61036e565b5b02179055507fba951166d42eb077151bdecb7cf6027562f04f0143b0c141b1bb0a33eef5d69333346040516102d59291906105e2565b60405180910390a15050565b5f60019054906101000a900473ffffffffffffffffffffffffffffffffffffffff1681565b5f8054906101000a900460ff1681565b5f73ffffffffffffffffffffffffffffffffffffffff82169050919050565b5f61033f82610316565b9050919050565b61034f81610335565b82525050565b5f6020820190506103685f830184610346565b92915050565b7f4e487b71000000000000000000000000000000000000000000000000000000005f52602160045260245ffd5b600281106103ac576103ab61036e565b5b50565b5f8190506103bc8261039b565b919050565b5f6103cb826103af565b9050919050565b6103db816103c1565b82525050565b5f6020820190506103f45f8301846103d2565b92915050565b5f82825260208201905092915050565b7f596f752063616e277420626f6f6b20796f7572206f776e20726f6f6d000000005f82015250565b5f61043e601c836103fa565b91506104498261040a565b602082019050919050565b5f6020820190508181035f83015261046b81610432565b9050919050565b7f43757272656e746c79206f6363757069656400000000000000000000000000005f82015250565b5f6104a66012836103fa565b91506104b182610472565b602082019050919050565b5f6020820190508181035f8301526104d38161049a565b9050919050565b7f4e6f7420656e6f7567682065746865722070726f76696465642e0000000000005f82015250565b5f61050e601a836103fa565b9150610519826104da565b602082019050919050565b5f6020820190508181035f83015261053b81610502565b9050919050565b5f81905092915050565b7f466f7220626f6f6b696e6720686f74656c0000000000000000000000000000005f82015250565b5f610580601183610542565b915061058b8261054c565b601182019050919050565b5f6105a082610574565b9150819050919050565b5f6105b482610316565b9050919050565b6105c4816105aa565b82525050565b5f819050919050565b6105dc816105ca565b82525050565b5f6040820190506105f55f8301856105bb565b61060260208301846105d3565b939250505056fea2646970667358221220fa13238320b6cd09aa47d7c9925d5f307e2e592fbf335b150756dbce18084c3b64736f6c634300081a0033",
					"opcodes": "PUSH1 0x80 PUSH1 0x40 MSTORE CALLVALUE DUP1 ISZERO PUSH1 0xE JUMPI PUSH0 DUP1 REVERT JUMPDEST POP CALLER PUSH0 PUSH1 0x1 PUSH2 0x100 EXP DUP2 SLOAD DUP2 PUSH20 0xFFFFFFFFFFFFFFFFFFFFFFFFFFFFFFFFFFFFFFFF MUL NOT AND SWAP1 DUP4 PUSH20 0xFFFFFFFFFFFFFFFFFFFFFFFFFFFFFFFFFFFFFFFF AND MUL OR SWAP1 SSTORE POP PUSH0 DUP1 PUSH0 PUSH2 0x100 EXP DUP2 SLOAD DUP2 PUSH1 0xFF MUL NOT AND SWAP1 DUP4 PUSH1 0x1 DUP2 GT ISZERO PUSH1 0x6F JUMPI PUSH1 0x6E PUSH1 0x78 JUMP JUMPDEST JUMPDEST MUL OR SWAP1 SSTORE POP PUSH1 0xA5 JUMP JUMPDEST PUSH32 0x4E487B7100000000000000000000000000000000000000000000000000000000 PUSH0 MSTORE PUSH1 0x21 PUSH1 0x4 MSTORE PUSH1 0x24 PUSH0 REVERT JUMPDEST PUSH2 0x63F DUP1 PUSH2 0xB2 PUSH0 CODECOPY PUSH0 RETURN INVALID PUSH1 0x80 PUSH1 0x40 MSTORE PUSH1 0x4 CALLDATASIZE LT PUSH2 0x33 JUMPI PUSH0 CALLDATALOAD PUSH1 0xE0 SHR DUP1 PUSH4 0x5A8DA72 EQ PUSH2 0x37 JUMPI DUP1 PUSH4 0x8DA5CB5B EQ PUSH2 0x41 JUMPI DUP1 PUSH4 0xEF8A9235 EQ PUSH2 0x6B JUMPI JUMPDEST PUSH0 DUP1 REVERT JUMPDEST PUSH2 0x3F PUSH2 0x95 JUMP JUMPDEST STOP JUMPDEST CALLVALUE DUP1 ISZERO PUSH2 0x4C JUMPI PUSH0 DUP1 REVERT JUMPDEST POP PUSH2 0x55 PUSH2 0x2E1 JUMP JUMPDEST PUSH1 0x40 MLOAD PUSH2 0x62 SWAP2 SWAP1 PUSH2 0x355 JUMP JUMPDEST PUSH1 0x40 MLOAD DUP1 SWAP2 SUB SWAP1 RETURN JUMPDEST CALLVALUE DUP1 ISZERO PUSH2 0x76 JUMPI PUSH0 DUP1 REVERT JUMPDEST POP PUSH2 0x7F PUSH2 0x306 JUMP JUMPDEST PUSH1 0x40 MLOAD PUSH2 0x8C SWAP2 SWAP1 PUSH2 0x3E1 JUMP JUMPDEST PUSH1 0x40 MLOAD DUP1 SWAP2 SUB SWAP1 RETURN JUMPDEST CALLER PUSH20 0xFFFFFFFFFFFFFFFFFFFFFFFFFFFFFFFFFFFFFFFF AND PUSH0 PUSH1 0x1 SWAP1 SLOAD SWAP1 PUSH2 0x100 EXP SWAP1 DIV PUSH20 0xFFFFFFFFFFFFFFFFFFFFFFFFFFFFFFFFFFFFFFFF AND PUSH20 0xFFFFFFFFFFFFFFFFFFFFFFFFFFFFFFFFFFFFFFFF AND SUB PUSH2 0x124 JUMPI PUSH1 0x40 MLOAD PUSH32 0x8C379A000000000000000000000000000000000000000000000000000000000 DUP2 MSTORE PUSH1 0x4 ADD PUSH2 0x11B SWAP1 PUSH2 0x454 JUMP JUMPDEST PUSH1 0x40 MLOAD DUP1 SWAP2 SUB SWAP1 REVERT JUMPDEST PUSH0 PUSH1 0x1 DUP2 GT ISZERO PUSH2 0x137 JUMPI PUSH2 0x136 PUSH2 0x36E JUMP JUMPDEST JUMPDEST PUSH0 DUP1 SLOAD SWAP1 PUSH2 0x100 EXP SWAP1 DIV PUSH1 0xFF AND PUSH1 0x1 DUP2 GT ISZERO PUSH2 0x156 JUMPI PUSH2 0x155 PUSH2 0x36E JUMP JUMPDEST JUMPDEST EQ PUSH2 0x196 JUMPI PUSH1 0x40 MLOAD PUSH32 0x8C379A000000000000000000000000000000000000000000000000000000000 DUP2 MSTORE PUSH1 0x4 ADD PUSH2 0x18D SWAP1 PUSH2 0x4BC JUMP JUMPDEST PUSH1 0x40 MLOAD DUP1 SWAP2 SUB SWAP1 REVERT JUMPDEST PUSH8 0x1BC16D674EC80000 DUP1 CALLVALUE LT ISZERO PUSH2 0x1E2 JUMPI PUSH1 0x40 MLOAD PUSH32 0x8C379A000000000000000000000000000000000000000000000000000000000 DUP2 MSTORE PUSH1 0x4 ADD PUSH2 0x1D9 SWAP1 PUSH2 0x524 JUMP JUMPDEST PUSH1 0x40 MLOAD DUP1 SWAP2 SUB SWAP1 REVERT JUMPDEST PUSH0 DUP1 PUSH1 0x1 SWAP1 SLOAD SWAP1 PUSH2 0x100 EXP SWAP1 DIV PUSH20 0xFFFFFFFFFFFFFFFFFFFFFFFFFFFFFFFFFFFFFFFF AND PUSH20 0xFFFFFFFFFFFFFFFFFFFFFFFFFFFFFFFFFFFFFFFF AND CALLVALUE PUSH1 0x40 MLOAD PUSH2 0x228 SWAP1 PUSH2 0x596 JUMP JUMPDEST PUSH0 PUSH1 0x40 MLOAD DUP1 DUP4 SUB DUP2 DUP6 DUP8 GAS CALL SWAP3 POP POP POP RETURNDATASIZE DUP1 PUSH0 DUP2 EQ PUSH2 0x262 JUMPI PUSH1 0x40 MLOAD SWAP2 POP PUSH1 0x1F NOT PUSH1 0x3F RETURNDATASIZE ADD AND DUP3 ADD PUSH1 0x40 MSTORE RETURNDATASIZE DUP3 MSTORE RETURNDATASIZE PUSH0 PUSH1 0x20 DUP5 ADD RETURNDATACOPY PUSH2 0x267 JUMP JUMPDEST PUSH1 0x60 SWAP2 POP JUMPDEST POP POP SWAP1 POP PUSH1 0x1 ISZERO ISZERO DUP2 ISZERO ISZERO EQ PUSH2 0x27B JUMPI PUSH0 DUP1 REVERT JUMPDEST PUSH1 0x1 PUSH0 DUP1 PUSH2 0x100 EXP DUP2 SLOAD DUP2 PUSH1 0xFF MUL NOT AND SWAP1 DUP4 PUSH1 0x1 DUP2 GT ISZERO PUSH2 0x29F JUMPI PUSH2 0x29E PUSH2 0x36E JUMP JUMPDEST JUMPDEST MUL OR SWAP1 SSTORE POP PUSH32 0xBA951166D42EB077151BDECB7CF6027562F04F0143B0C141B1BB0A33EEF5D693 CALLER CALLVALUE PUSH1 0x40 MLOAD PUSH2 0x2D5 SWAP3 SWAP2 SWAP1 PUSH2 0x5E2 JUMP JUMPDEST PUSH1 0x40 MLOAD DUP1 SWAP2 SUB SWAP1 LOG1 POP POP JUMP JUMPDEST PUSH0 PUSH1 0x1 SWAP1 SLOAD SWAP1 PUSH2 0x100 EXP SWAP1 DIV PUSH20 0xFFFFFFFFFFFFFFFFFFFFFFFFFFFFFFFFFFFFFFFF AND DUP2 JUMP JUMPDEST PUSH0 DUP1 SLOAD SWAP1 PUSH2 0x100 EXP SWAP1 DIV PUSH1 0xFF AND DUP2 JUMP JUMPDEST PUSH0 PUSH20 0xFFFFFFFFFFFFFFFFFFFFFFFFFFFFFFFFFFFFFFFF DUP3 AND SWAP1 POP SWAP2 SWAP1 POP JUMP JUMPDEST PUSH0 PUSH2 0x33F DUP3 PUSH2 0x316 JUMP JUMPDEST SWAP1 POP SWAP2 SWAP1 POP JUMP JUMPDEST PUSH2 0x34F DUP2 PUSH2 0x335 JUMP JUMPDEST DUP3 MSTORE POP POP JUMP JUMPDEST PUSH0 PUSH1 0x20 DUP3 ADD SWAP1 POP PUSH2 0x368 PUSH0 DUP4 ADD DUP5 PUSH2 0x346 JUMP JUMPDEST SWAP3 SWAP2 POP POP JUMP JUMPDEST PUSH32 0x4E487B7100000000000000000000000000000000000000000000000000000000 PUSH0 MSTORE PUSH1 0x21 PUSH1 0x4 MSTORE PUSH1 0x24 PUSH0 REVERT JUMPDEST PUSH1 0x2 DUP2 LT PUSH2 0x3AC JUMPI PUSH2 0x3AB PUSH2 0x36E JUMP JUMPDEST JUMPDEST POP JUMP JUMPDEST PUSH0 DUP2 SWAP1 POP PUSH2 0x3BC DUP3 PUSH2 0x39B JUMP JUMPDEST SWAP2 SWAP1 POP JUMP JUMPDEST PUSH0 PUSH2 0x3CB DUP3 PUSH2 0x3AF JUMP JUMPDEST SWAP1 POP SWAP2 SWAP1 POP JUMP JUMPDEST PUSH2 0x3DB DUP2 PUSH2 0x3C1 JUMP JUMPDEST DUP3 MSTORE POP POP JUMP JUMPDEST PUSH0 PUSH1 0x20 DUP3 ADD SWAP1 POP PUSH2 0x3F4 PUSH0 DUP4 ADD DUP5 PUSH2 0x3D2 JUMP JUMPDEST SWAP3 SWAP2 POP POP JUMP JUMPDEST PUSH0 DUP3 DUP3 MSTORE PUSH1 0x20 DUP3 ADD SWAP1 POP SWAP3 SWAP2 POP POP JUMP JUMPDEST PUSH32 0x596F752063616E277420626F6F6B20796F7572206F776E20726F6F6D00000000 PUSH0 DUP3 ADD MSTORE POP JUMP JUMPDEST PUSH0 PUSH2 0x43E PUSH1 0x1C DUP4 PUSH2 0x3FA JUMP JUMPDEST SWAP2 POP PUSH2 0x449 DUP3 PUSH2 0x40A JUMP JUMPDEST PUSH1 0x20 DUP3 ADD SWAP1 POP SWAP2 SWAP1 POP JUMP JUMPDEST PUSH0 PUSH1 0x20 DUP3 ADD SWAP1 POP DUP2 DUP2 SUB PUSH0 DUP4 ADD MSTORE PUSH2 0x46B DUP2 PUSH2 0x432 JUMP JUMPDEST SWAP1 POP SWAP2 SWAP1 POP JUMP JUMPDEST PUSH32 0x43757272656E746C79206F636375706965640000000000000000000000000000 PUSH0 DUP3 ADD MSTORE POP JUMP JUMPDEST PUSH0 PUSH2 0x4A6 PUSH1 0x12 DUP4 PUSH2 0x3FA JUMP JUMPDEST SWAP2 POP PUSH2 0x4B1 DUP3 PUSH2 0x472 JUMP JUMPDEST PUSH1 0x20 DUP3 ADD SWAP1 POP SWAP2 SWAP1 POP JUMP JUMPDEST PUSH0 PUSH1 0x20 DUP3 ADD SWAP1 POP DUP2 DUP2 SUB PUSH0 DUP4 ADD MSTORE PUSH2 0x4D3 DUP2 PUSH2 0x49A JUMP JUMPDEST SWAP1 POP SWAP2 SWAP1 POP JUMP JUMPDEST PUSH32 0x4E6F7420656E6F7567682065746865722070726F76696465642E000000000000 PUSH0 DUP3 ADD MSTORE POP JUMP JUMPDEST PUSH0 PUSH2 0x50E PUSH1 0x1A DUP4 PUSH2 0x3FA JUMP JUMPDEST SWAP2 POP PUSH2 0x519 DUP3 PUSH2 0x4DA JUMP JUMPDEST PUSH1 0x20 DUP3 ADD SWAP1 POP SWAP2 SWAP1 POP JUMP JUMPDEST PUSH0 PUSH1 0x20 DUP3 ADD SWAP1 POP DUP2 DUP2 SUB PUSH0 DUP4 ADD MSTORE PUSH2 0x53B DUP2 PUSH2 0x502 JUMP JUMPDEST SWAP1 POP SWAP2 SWAP1 POP JUMP JUMPDEST PUSH0 DUP2 SWAP1 POP SWAP3 SWAP2 POP POP JUMP JUMPDEST PUSH32 0x466F7220626F6F6B696E6720686F74656C000000000000000000000000000000 PUSH0 DUP3 ADD MSTORE POP JUMP JUMPDEST PUSH0 PUSH2 0x580 PUSH1 0x11 DUP4 PUSH2 0x542 JUMP JUMPDEST SWAP2 POP PUSH2 0x58B DUP3 PUSH2 0x54C JUMP JUMPDEST PUSH1 0x11 DUP3 ADD SWAP1 POP SWAP2 SWAP1 POP JUMP JUMPDEST PUSH0 PUSH2 0x5A0 DUP3 PUSH2 0x574 JUMP JUMPDEST SWAP2 POP DUP2 SWAP1 POP SWAP2 SWAP1 POP JUMP JUMPDEST PUSH0 PUSH2 0x5B4 DUP3 PUSH2 0x316 JUMP JUMPDEST SWAP1 POP SWAP2 SWAP1 POP JUMP JUMPDEST PUSH2 0x5C4 DUP2 PUSH2 0x5AA JUMP JUMPDEST DUP3 MSTORE POP POP JUMP JUMPDEST PUSH0 DUP2 SWAP1 POP SWAP2 SWAP1 POP JUMP JUMPDEST PUSH2 0x5DC DUP2 PUSH2 0x5CA JUMP JUMPDEST DUP3 MSTORE POP POP JUMP JUMPDEST PUSH0 PUSH1 0x40 DUP3 ADD SWAP1 POP PUSH2 0x5F5 PUSH0 DUP4 ADD DUP6 PUSH2 0x5BB JUMP JUMPDEST PUSH2 0x602 PUSH1 0x20 DUP4 ADD DUP5 PUSH2 0x5D3 JUMP JUMPDEST SWAP4 SWAP3 POP POP POP JUMP INVALID LOG2 PUSH5 0x6970667358 0x22 SLT KECCAK256 STATICCALL SGT 0x23 DUP4 KECCAK256 0xB6 0xCD MULMOD 0xAA SELFBALANCE 0xD7 0xC9 SWAP3 TSTORE PUSH0 ADDRESS PUSH31 0x2E592FBF335B150756DBCE18084C3B64736F6C634300081A00330000000000 "
				},
				"gasEstimates": {
					"creation": {
						"codeDepositCost": "319800",
						"executionCost": "48965",
						"totalCost": "368765"
					},
					"external": {
						"book()": "infinite",
						"currentStatus()": "2573",
						"owner()": "2558"
					}
				},
				"methodIdentifiers": {
					"book()": "05a8da72",
					"currentStatus()": "ef8a9235",
					"owner()": "8da5cb5b"
				}
			},
			"storageLayout": {
				"storage": [
					{
						"astId": 7,
						"contract": "Hotel/HotelRoom.sol:HotelRoom",
						"label": "currentStatus",
						"offset": 0,
						"slot": "0",
						"type": "t_enum(Statuses)4"
					},
					{
						"astId": 15,
						"contract": "Hotel/HotelRoom.sol:HotelRoom",
						"label": "owner",
						"offset": 1,
						"slot": "0",
						"type": "t_address_payable"
					}
				],
				"types": {
					"t_address_payable": {
						"encoding": "inplace",
						"label": "address payable",
						"numberOfBytes": "20"
					},
					"t_enum(Statuses)4": {
						"encoding": "inplace",
						"label": "enum HotelRoom.Statuses",
						"numberOfBytes": "1"
					}
				}
			},
			"userdoc": {
				"kind": "user",
				"methods": {},
				"version": 1
			}
		}
	}
}