{
	"Hotel/HotelRoom.sol": {
		"HotelRoom": {
			"abi": [
				{
					"inputs": [],
					"stateMutability": "nonpayable",
					"type": "constructor"
				},
				{
					"anonymous": false,
					"inputs": [
						{
							"indexed": false,
							"internalType": "address",
							"name": "_occupant",
							"type": "address"
						},
						{
							"indexed": false,
							"internalType": "uint256",
							"name": "_value",
							"type": "uint256"
						}
					],
					"name": "Occupy",
					"type": "event"
				},
				{
					"inputs": [],
					"name": "book",
					"outputs": [],
					"stateMutability": "payable",
					"type": "function"
				},
				{
					"inputs": [],
					"name": "owner",
					"outputs": [
						{
							"internalType": "address payable",
							"name": "",
							"type": "address"
						}
					],
					"stateMutability": "view",
					"type": "function"
				}
			],
			"devdoc": {
				"kind": "dev",
				"methods": {},
				"version": 1
			},
			"evm": {
				"assembly": "    /* \"Hotel/HotelRoom.sol\":58:843  contract HotelRoom {... */\n  mstore(0x40, 0x80)\n    /* \"Hotel/HotelRoom.sol\":237:336  constructor() {... */\n  callvalue\n  dup1\n  iszero\n  tag_1\n  jumpi\n  0x00\n  dup1\n  revert\ntag_1:\n  pop\n    /* \"Hotel/HotelRoom.sol\":277:287  msg.sender */\n  caller\n    /* \"Hotel/HotelRoom.sol\":261:266  owner */\n  0x00\n  0x01\n    /* \"Hotel/HotelRoom.sol\":261:288  owner = payable(msg.sender) */\n  0x0100\n  exp\n  dup2\n  sload\n  dup2\n  0xffffffffffffffffffffffffffffffffffffffff\n  mul\n  not\n  and\n  swap1\n  dup4\n  0xffffffffffffffffffffffffffffffffffffffff\n  and\n  mul\n  or\n  swap1\n  sstore\n  pop\n    /* \"Hotel/HotelRoom.sol\":314:329  Statuses.Vacant */\n  0x00\n    /* \"Hotel/HotelRoom.sol\":298:311  currentStatus */\n  dup1\n  0x00\n    /* \"Hotel/HotelRoom.sol\":298:329  currentStatus = Statuses.Vacant */\n  0x0100\n  exp\n  dup2\n  sload\n  dup2\n  0xff\n  mul\n  not\n  and\n  swap1\n  dup4\n  0x01\n  dup2\n  gt\n  iszero\n  tag_4\n  jumpi\n  tag_5\n  tag_6\n  jump\t// in\ntag_5:\ntag_4:\n  mul\n  or\n  swap1\n  sstore\n  pop\n    /* \"Hotel/HotelRoom.sol\":58:843  contract HotelRoom {... */\n  jump(tag_7)\n    /* \"#utility.yul\":7:187   */\ntag_6:\n    /* \"#utility.yul\":55:132   */\n  0x4e487b7100000000000000000000000000000000000000000000000000000000\n    /* \"#utility.yul\":52:53   */\n  0x00\n    /* \"#utility.yul\":45:133   */\n  mstore\n    /* \"#utility.yul\":152:156   */\n  0x21\n    /* \"#utility.yul\":149:150   */\n  0x04\n    /* \"#utility.yul\":142:157   */\n  mstore\n    /* \"#utility.yul\":176:180   */\n  0x24\n    /* \"#utility.yul\":173:174   */\n  0x00\n    /* \"#utility.yul\":166:181   */\n  revert\n    /* \"Hotel/HotelRoom.sol\":58:843  contract HotelRoom {... */\ntag_7:\n  dataSize(sub_0)\n  dup1\n  dataOffset(sub_0)\n  0x00\n  codecopy\n  0x00\n  return\nstop\n\nsub_0: assembly {\n        /* \"Hotel/HotelRoom.sol\":58:843  contract HotelRoom {... */\n      mstore(0x40, 0x80)\n      jumpi(tag_1, lt(calldatasize, 0x04))\n      shr(0xe0, calldataload(0x00))\n      dup1\n      0x05a8da72\n      eq\n      tag_2\n      jumpi\n      dup1\n      0x8da5cb5b\n      eq\n      tag_3\n      jumpi\n    tag_1:\n      0x00\n      dup1\n      revert\n        /* \"Hotel/HotelRoom.sol\":647:838  function book() public status costs(2 ether) payable {... */\n    tag_2:\n      tag_4\n      tag_5\n      jump\t// in\n    tag_4:\n      stop\n        /* \"Hotel/HotelRoom.sol\":202:230  address payable public owner */\n    tag_3:\n      callvalue\n      dup1\n      iszero\n      tag_6\n      jumpi\n      0x00\n      dup1\n      revert\n    tag_6:\n      pop\n      tag_7\n      tag_8\n      jump\t// in\n    tag_7:\n      mload(0x40)\n      tag_9\n      swap2\n      swap1\n      tag_10\n      jump\t// in\n    tag_9:\n      mload(0x40)\n      dup1\n      swap2\n      sub\n      swap1\n      return\n        /* \"Hotel/HotelRoom.sol\":647:838  function book() public status costs(2 ether) payable {... */\n    tag_5:\n        /* \"Hotel/HotelRoom.sol\":385:395  msg.sender */\n      caller\n        /* \"Hotel/HotelRoom.sol\":376:395  owner != msg.sender */\n      0xffffffffffffffffffffffffffffffffffffffff\n      and\n        /* \"Hotel/HotelRoom.sol\":376:381  owner */\n      0x00\n      0x01\n      swap1\n      sload\n      swap1\n      0x0100\n      exp\n      swap1\n      div\n      0xffffffffffffffffffffffffffffffffffffffff\n      and\n        /* \"Hotel/HotelRoom.sol\":376:395  owner != msg.sender */\n      0xffffffffffffffffffffffffffffffffffffffff\n      and\n      sub\n        /* \"Hotel/HotelRoom.sol\":368:428  require(owner != msg.sender, \"You can't book your own room\") */\n      tag_12\n      jumpi\n      mload(0x40)\n      0x08c379a000000000000000000000000000000000000000000000000000000000\n      dup2\n      mstore\n      0x04\n      add\n      tag_13\n      swap1\n      tag_14\n      jump\t// in\n    tag_13:\n      mload(0x40)\n      dup1\n      swap2\n      sub\n      swap1\n      revert\n    tag_12:\n        /* \"Hotel/HotelRoom.sol\":463:478  Statuses.Vacant */\n      0x00\n        /* \"Hotel/HotelRoom.sol\":446:478  currentStatus == Statuses.Vacant */\n      0x01\n      dup2\n      gt\n      iszero\n      tag_15\n      jumpi\n      tag_16\n      tag_17\n      jump\t// in\n    tag_16:\n    tag_15:\n        /* \"Hotel/HotelRoom.sol\":446:459  currentStatus */\n      0x00\n      dup1\n      sload\n      swap1\n      0x0100\n      exp\n      swap1\n      div\n      0xff\n      and\n        /* \"Hotel/HotelRoom.sol\":446:478  currentStatus == Statuses.Vacant */\n      0x01\n      dup2\n      gt\n      iszero\n      tag_18\n      jumpi\n      tag_19\n      tag_17\n      jump\t// in\n    tag_19:\n    tag_18:\n      eq\n        /* \"Hotel/HotelRoom.sol\":438:501  require(currentStatus == Statuses.Vacant, \"Currently occupied\") */\n      tag_20\n      jumpi\n      mload(0x40)\n      0x08c379a000000000000000000000000000000000000000000000000000000000\n      dup2\n      mstore\n      0x04\n      add\n      tag_21\n      swap1\n      tag_22\n      jump\t// in\n    tag_21:\n      mload(0x40)\n      dup1\n      swap2\n      sub\n      swap1\n      revert\n    tag_20:\n        /* \"Hotel/HotelRoom.sol\":683:690  2 ether */\n      0x1bc16d674ec80000\n        /* \"Hotel/HotelRoom.sol\":585:592  2 ether */\n      dup1\n        /* \"Hotel/HotelRoom.sol\":572:581  msg.value */\n      callvalue\n        /* \"Hotel/HotelRoom.sol\":572:592  msg.value >= 2 ether */\n      lt\n      iszero\n        /* \"Hotel/HotelRoom.sol\":564:623  require(msg.value >= 2 ether, \"Not enough ether provided.\") */\n      tag_24\n      jumpi\n      mload(0x40)\n      0x08c379a000000000000000000000000000000000000000000000000000000000\n      dup2\n      mstore\n      0x04\n      add\n      tag_25\n      swap1\n      tag_26\n      jump\t// in\n    tag_25:\n      mload(0x40)\n      dup1\n      swap2\n      sub\n      swap1\n      revert\n    tag_24:\n        /* \"Hotel/HotelRoom.sol\":710:715  owner */\n      0x00\n      0x01\n      swap1\n      sload\n      swap1\n      0x0100\n      exp\n      swap1\n      div\n      0xffffffffffffffffffffffffffffffffffffffff\n      and\n        /* \"Hotel/HotelRoom.sol\":710:724  owner.transfer */\n      0xffffffffffffffffffffffffffffffffffffffff\n      and\n        /* \"Hotel/HotelRoom.sol\":710:735  owner.transfer(msg.value) */\n      0x08fc\n        /* \"Hotel/HotelRoom.sol\":725:734  msg.value */\n      callvalue\n        /* \"Hotel/HotelRoom.sol\":710:735  owner.transfer(msg.value) */\n      swap1\n      dup2\n      iszero\n      mul\n      swap1\n      mload(0x40)\n      0x00\n      mload(0x40)\n      dup1\n      dup4\n      sub\n      dup2\n      dup6\n      dup9\n      dup9\n      call\n      swap4\n      pop\n      pop\n      pop\n      pop\n      iszero\n      dup1\n      iszero\n      tag_29\n      jumpi\n      returndatasize\n      0x00\n      dup1\n      returndatacopy\n      revert(0x00, returndatasize)\n    tag_29:\n      pop\n        /* \"Hotel/HotelRoom.sol\":761:778  Statuses.Occupied */\n      0x01\n        /* \"Hotel/HotelRoom.sol\":745:758  currentStatus */\n      0x00\n      dup1\n        /* \"Hotel/HotelRoom.sol\":745:778  currentStatus = Statuses.Occupied */\n      0x0100\n      exp\n      dup2\n      sload\n      dup2\n      0xff\n      mul\n      not\n      and\n      swap1\n      dup4\n      0x01\n      dup2\n      gt\n      iszero\n      tag_30\n      jumpi\n      tag_31\n      tag_17\n      jump\t// in\n    tag_31:\n    tag_30:\n      mul\n      or\n      swap1\n      sstore\n      pop\n        /* \"Hotel/HotelRoom.sol\":802:831  Occupy(msg.sender, msg.value) */\n      0xba951166d42eb077151bdecb7cf6027562f04f0143b0c141b1bb0a33eef5d693\n        /* \"Hotel/HotelRoom.sol\":809:819  msg.sender */\n      caller\n        /* \"Hotel/HotelRoom.sol\":821:830  msg.value */\n      callvalue\n        /* \"Hotel/HotelRoom.sol\":802:831  Occupy(msg.sender, msg.value) */\n      mload(0x40)\n      tag_32\n      swap3\n      swap2\n      swap1\n      tag_33\n      jump\t// in\n    tag_32:\n      mload(0x40)\n      dup1\n      swap2\n      sub\n      swap1\n      log1\n        /* \"Hotel/HotelRoom.sol\":511:512  _ */\n      pop\n        /* \"Hotel/HotelRoom.sol\":647:838  function book() public status costs(2 ether) payable {... */\n      jump\t// out\n        /* \"Hotel/HotelRoom.sol\":202:230  address payable public owner */\n    tag_8:\n      0x00\n      0x01\n      swap1\n      sload\n      swap1\n      0x0100\n      exp\n      swap1\n      div\n      0xffffffffffffffffffffffffffffffffffffffff\n      and\n      dup2\n      jump\t// out\n        /* \"#utility.yul\":7:133   */\n    tag_34:\n        /* \"#utility.yul\":44:51   */\n      0x00\n        /* \"#utility.yul\":84:126   */\n      0xffffffffffffffffffffffffffffffffffffffff\n        /* \"#utility.yul\":77:82   */\n      dup3\n        /* \"#utility.yul\":73:127   */\n      and\n        /* \"#utility.yul\":62:127   */\n      swap1\n      pop\n        /* \"#utility.yul\":7:133   */\n      swap2\n      swap1\n      pop\n      jump\t// out\n        /* \"#utility.yul\":139:243   */\n    tag_35:\n        /* \"#utility.yul\":184:191   */\n      0x00\n        /* \"#utility.yul\":213:237   */\n      tag_51\n        /* \"#utility.yul\":231:236   */\n      dup3\n        /* \"#utility.yul\":213:237   */\n      tag_34\n      jump\t// in\n    tag_51:\n        /* \"#utility.yul\":202:237   */\n      swap1\n      pop\n        /* \"#utility.yul\":139:243   */\n      swap2\n      swap1\n      pop\n      jump\t// out\n        /* \"#utility.yul\":249:391   */\n    tag_36:\n        /* \"#utility.yul\":352:384   */\n      tag_53\n        /* \"#utility.yul\":378:383   */\n      dup2\n        /* \"#utility.yul\":352:384   */\n      tag_35\n      jump\t// in\n    tag_53:\n        /* \"#utility.yul\":347:350   */\n      dup3\n        /* \"#utility.yul\":340:385   */\n      mstore\n        /* \"#utility.yul\":249:391   */\n      pop\n      pop\n      jump\t// out\n        /* \"#utility.yul\":397:651   */\n    tag_10:\n        /* \"#utility.yul\":506:510   */\n      0x00\n        /* \"#utility.yul\":544:546   */\n      0x20\n        /* \"#utility.yul\":533:542   */\n      dup3\n        /* \"#utility.yul\":529:547   */\n      add\n        /* \"#utility.yul\":521:547   */\n      swap1\n      pop\n        /* \"#utility.yul\":557:644   */\n      tag_55\n        /* \"#utility.yul\":641:642   */\n      0x00\n        /* \"#utility.yul\":630:639   */\n      dup4\n        /* \"#utility.yul\":626:643   */\n      add\n        /* \"#utility.yul\":617:623   */\n      dup5\n        /* \"#utility.yul\":557:644   */\n      tag_36\n      jump\t// in\n    tag_55:\n        /* \"#utility.yul\":397:651   */\n      swap3\n      swap2\n      pop\n      pop\n      jump\t// out\n        /* \"#utility.yul\":657:826   */\n    tag_37:\n        /* \"#utility.yul\":741:752   */\n      0x00\n        /* \"#utility.yul\":775:781   */\n      dup3\n        /* \"#utility.yul\":770:773   */\n      dup3\n        /* \"#utility.yul\":763:782   */\n      mstore\n        /* \"#utility.yul\":815:819   */\n      0x20\n        /* \"#utility.yul\":810:813   */\n      dup3\n        /* \"#utility.yul\":806:820   */\n      add\n        /* \"#utility.yul\":791:820   */\n      swap1\n      pop\n        /* \"#utility.yul\":657:826   */\n      swap3\n      swap2\n      pop\n      pop\n      jump\t// out\n        /* \"#utility.yul\":832:1010   */\n    tag_38:\n        /* \"#utility.yul\":972:1002   */\n      0x596f752063616e277420626f6f6b20796f7572206f776e20726f6f6d00000000\n        /* \"#utility.yul\":968:969   */\n      0x00\n        /* \"#utility.yul\":960:966   */\n      dup3\n        /* \"#utility.yul\":956:970   */\n      add\n        /* \"#utility.yul\":949:1003   */\n      mstore\n        /* \"#utility.yul\":832:1010   */\n      pop\n      jump\t// out\n        /* \"#utility.yul\":1016:1382   */\n    tag_39:\n        /* \"#utility.yul\":1158:1161   */\n      0x00\n        /* \"#utility.yul\":1179:1246   */\n      tag_59\n        /* \"#utility.yul\":1243:1245   */\n      0x1c\n        /* \"#utility.yul\":1238:1241   */\n      dup4\n        /* \"#utility.yul\":1179:1246   */\n      tag_37\n      jump\t// in\n    tag_59:\n        /* \"#utility.yul\":1172:1246   */\n      swap2\n      pop\n        /* \"#utility.yul\":1255:1348   */\n      tag_60\n        /* \"#utility.yul\":1344:1347   */\n      dup3\n        /* \"#utility.yul\":1255:1348   */\n      tag_38\n      jump\t// in\n    tag_60:\n        /* \"#utility.yul\":1373:1375   */\n      0x20\n        /* \"#utility.yul\":1368:1371   */\n      dup3\n        /* \"#utility.yul\":1364:1376   */\n      add\n        /* \"#utility.yul\":1357:1376   */\n      swap1\n      pop\n        /* \"#utility.yul\":1016:1382   */\n      swap2\n      swap1\n      pop\n      jump\t// out\n        /* \"#utility.yul\":1388:1807   */\n    tag_14:\n        /* \"#utility.yul\":1554:1558   */\n      0x00\n        /* \"#utility.yul\":1592:1594   */\n      0x20\n        /* \"#utility.yul\":1581:1590   */\n      dup3\n        /* \"#utility.yul\":1577:1595   */\n      add\n        /* \"#utility.yul\":1569:1595   */\n      swap1\n      pop\n        /* \"#utility.yul\":1641:1650   */\n      dup2\n        /* \"#utility.yul\":1635:1639   */\n      dup2\n        /* \"#utility.yul\":1631:1651   */\n      sub\n        /* \"#utility.yul\":1627:1628   */\n      0x00\n        /* \"#utility.yul\":1616:1625   */\n      dup4\n        /* \"#utility.yul\":1612:1629   */\n      add\n        /* \"#utility.yul\":1605:1652   */\n      mstore\n        /* \"#utility.yul\":1669:1800   */\n      tag_62\n        /* \"#utility.yul\":1795:1799   */\n      dup2\n        /* \"#utility.yul\":1669:1800   */\n      tag_39\n      jump\t// in\n    tag_62:\n        /* \"#utility.yul\":1661:1800   */\n      swap1\n      pop\n        /* \"#utility.yul\":1388:1807   */\n      swap2\n      swap1\n      pop\n      jump\t// out\n        /* \"#utility.yul\":1813:1993   */\n    tag_17:\n        /* \"#utility.yul\":1861:1938   */\n      0x4e487b7100000000000000000000000000000000000000000000000000000000\n        /* \"#utility.yul\":1858:1859   */\n      0x00\n        /* \"#utility.yul\":1851:1939   */\n      mstore\n        /* \"#utility.yul\":1958:1962   */\n      0x21\n        /* \"#utility.yul\":1955:1956   */\n      0x04\n        /* \"#utility.yul\":1948:1963   */\n      mstore\n        /* \"#utility.yul\":1982:1986   */\n      0x24\n        /* \"#utility.yul\":1979:1980   */\n      0x00\n        /* \"#utility.yul\":1972:1987   */\n      revert\n        /* \"#utility.yul\":1999:2167   */\n    tag_40:\n        /* \"#utility.yul\":2139:2159   */\n      0x43757272656e746c79206f636375706965640000000000000000000000000000\n        /* \"#utility.yul\":2135:2136   */\n      0x00\n        /* \"#utility.yul\":2127:2133   */\n      dup3\n        /* \"#utility.yul\":2123:2137   */\n      add\n        /* \"#utility.yul\":2116:2160   */\n      mstore\n        /* \"#utility.yul\":1999:2167   */\n      pop\n      jump\t// out\n        /* \"#utility.yul\":2173:2539   */\n    tag_41:\n        /* \"#utility.yul\":2315:2318   */\n      0x00\n        /* \"#utility.yul\":2336:2403   */\n      tag_66\n        /* \"#utility.yul\":2400:2402   */\n      0x12\n        /* \"#utility.yul\":2395:2398   */\n      dup4\n        /* \"#utility.yul\":2336:2403   */\n      tag_37\n      jump\t// in\n    tag_66:\n        /* \"#utility.yul\":2329:2403   */\n      swap2\n      pop\n        /* \"#utility.yul\":2412:2505   */\n      tag_67\n        /* \"#utility.yul\":2501:2504   */\n      dup3\n        /* \"#utility.yul\":2412:2505   */\n      tag_40\n      jump\t// in\n    tag_67:\n        /* \"#utility.yul\":2530:2532   */\n      0x20\n        /* \"#utility.yul\":2525:2528   */\n      dup3\n        /* \"#utility.yul\":2521:2533   */\n      add\n        /* \"#utility.yul\":2514:2533   */\n      swap1\n      pop\n        /* \"#utility.yul\":2173:2539   */\n      swap2\n      swap1\n      pop\n      jump\t// out\n        /* \"#utility.yul\":2545:2964   */\n    tag_22:\n        /* \"#utility.yul\":2711:2715   */\n      0x00\n        /* \"#utility.yul\":2749:2751   */\n      0x20\n        /* \"#utility.yul\":2738:2747   */\n      dup3\n        /* \"#utility.yul\":2734:2752   */\n      add\n        /* \"#utility.yul\":2726:2752   */\n      swap1\n      pop\n        /* \"#utility.yul\":2798:2807   */\n      dup2\n        /* \"#utility.yul\":2792:2796   */\n      dup2\n        /* \"#utility.yul\":2788:2808   */\n      sub\n        /* \"#utility.yul\":2784:2785   */\n      0x00\n        /* \"#utility.yul\":2773:2782   */\n      dup4\n        /* \"#utility.yul\":2769:2786   */\n      add\n        /* \"#utility.yul\":2762:2809   */\n      mstore\n        /* \"#utility.yul\":2826:2957   */\n      tag_69\n        /* \"#utility.yul\":2952:2956   */\n      dup2\n        /* \"#utility.yul\":2826:2957   */\n      tag_41\n      jump\t// in\n    tag_69:\n        /* \"#utility.yul\":2818:2957   */\n      swap1\n      pop\n        /* \"#utility.yul\":2545:2964   */\n      swap2\n      swap1\n      pop\n      jump\t// out\n        /* \"#utility.yul\":2970:3146   */\n    tag_42:\n        /* \"#utility.yul\":3110:3138   */\n      0x4e6f7420656e6f7567682065746865722070726f76696465642e000000000000\n        /* \"#utility.yul\":3106:3107   */\n      0x00\n        /* \"#utility.yul\":3098:3104   */\n      dup3\n        /* \"#utility.yul\":3094:3108   */\n      add\n        /* \"#utility.yul\":3087:3139   */\n      mstore\n        /* \"#utility.yul\":2970:3146   */\n      pop\n      jump\t// out\n        /* \"#utility.yul\":3152:3518   */\n    tag_43:\n        /* \"#utility.yul\":3294:3297   */\n      0x00\n        /* \"#utility.yul\":3315:3382   */\n      tag_72\n        /* \"#utility.yul\":3379:3381   */\n      0x1a\n        /* \"#utility.yul\":3374:3377   */\n      dup4\n        /* \"#utility.yul\":3315:3382   */\n      tag_37\n      jump\t// in\n    tag_72:\n        /* \"#utility.yul\":3308:3382   */\n      swap2\n      pop\n        /* \"#utility.yul\":3391:3484   */\n      tag_73\n        /* \"#utility.yul\":3480:3483   */\n      dup3\n        /* \"#utility.yul\":3391:3484   */\n      tag_42\n      jump\t// in\n    tag_73:\n        /* \"#utility.yul\":3509:3511   */\n      0x20\n        /* \"#utility.yul\":3504:3507   */\n      dup3\n        /* \"#utility.yul\":3500:3512   */\n      add\n        /* \"#utility.yul\":3493:3512   */\n      swap1\n      pop\n        /* \"#utility.yul\":3152:3518   */\n      swap2\n      swap1\n      pop\n      jump\t// out\n        /* \"#utility.yul\":3524:3943   */\n    tag_26:\n        /* \"#utility.yul\":3690:3694   */\n      0x00\n        /* \"#utility.yul\":3728:3730   */\n      0x20\n        /* \"#utility.yul\":3717:3726   */\n      dup3\n        /* \"#utility.yul\":3713:3731   */\n      add\n        /* \"#utility.yul\":3705:3731   */\n      swap1\n      pop\n        /* \"#utility.yul\":3777:3786   */\n      dup2\n        /* \"#utility.yul\":3771:3775   */\n      dup2\n        /* \"#utility.yul\":3767:3787   */\n      sub\n        /* \"#utility.yul\":3763:3764   */\n      0x00\n        /* \"#utility.yul\":3752:3761   */\n      dup4\n        /* \"#utility.yul\":3748:3765   */\n      add\n        /* \"#utility.yul\":3741:3788   */\n      mstore\n        /* \"#utility.yul\":3805:3936   */\n      tag_75\n        /* \"#utility.yul\":3931:3935   */\n      dup2\n        /* \"#utility.yul\":3805:3936   */\n      tag_43\n      jump\t// in\n    tag_75:\n        /* \"#utility.yul\":3797:3936   */\n      swap1\n      pop\n        /* \"#utility.yul\":3524:3943   */\n      swap2\n      swap1\n      pop\n      jump\t// out\n        /* \"#utility.yul\":3949:4045   */\n    tag_44:\n        /* \"#utility.yul\":3986:3993   */\n      0x00\n        /* \"#utility.yul\":4015:4039   */\n      tag_77\n        /* \"#utility.yul\":4033:4038   */\n      dup3\n        /* \"#utility.yul\":4015:4039   */\n      tag_34\n      jump\t// in\n    tag_77:\n        /* \"#utility.yul\":4004:4039   */\n      swap1\n      pop\n        /* \"#utility.yul\":3949:4045   */\n      swap2\n      swap1\n      pop\n      jump\t// out\n        /* \"#utility.yul\":4051:4169   */\n    tag_45:\n        /* \"#utility.yul\":4138:4162   */\n      tag_79\n        /* \"#utility.yul\":4156:4161   */\n      dup2\n        /* \"#utility.yul\":4138:4162   */\n      tag_44\n      jump\t// in\n    tag_79:\n        /* \"#utility.yul\":4133:4136   */\n      dup3\n        /* \"#utility.yul\":4126:4163   */\n      mstore\n        /* \"#utility.yul\":4051:4169   */\n      pop\n      pop\n      jump\t// out\n        /* \"#utility.yul\":4175:4252   */\n    tag_46:\n        /* \"#utility.yul\":4212:4219   */\n      0x00\n        /* \"#utility.yul\":4241:4246   */\n      dup2\n        /* \"#utility.yul\":4230:4246   */\n      swap1\n      pop\n        /* \"#utility.yul\":4175:4252   */\n      swap2\n      swap1\n      pop\n      jump\t// out\n        /* \"#utility.yul\":4258:4376   */\n    tag_47:\n        /* \"#utility.yul\":4345:4369   */\n      tag_82\n        /* \"#utility.yul\":4363:4368   */\n      dup2\n        /* \"#utility.yul\":4345:4369   */\n      tag_46\n      jump\t// in\n    tag_82:\n        /* \"#utility.yul\":4340:4343   */\n      dup3\n        /* \"#utility.yul\":4333:4370   */\n      mstore\n        /* \"#utility.yul\":4258:4376   */\n      pop\n      pop\n      jump\t// out\n        /* \"#utility.yul\":4382:4714   */\n    tag_33:\n        /* \"#utility.yul\":4503:4507   */\n      0x00\n        /* \"#utility.yul\":4541:4543   */\n      0x40\n        /* \"#utility.yul\":4530:4539   */\n      dup3\n        /* \"#utility.yul\":4526:4544   */\n      add\n        /* \"#utility.yul\":4518:4544   */\n      swap1\n      pop\n        /* \"#utility.yul\":4554:4625   */\n      tag_84\n        /* \"#utility.yul\":4622:4623   */\n      0x00\n        /* \"#utility.yul\":4611:4620   */\n      dup4\n        /* \"#utility.yul\":4607:4624   */\n      add\n        /* \"#utility.yul\":4598:4604   */\n      dup6\n        /* \"#utility.yul\":4554:4625   */\n      tag_45\n      jump\t// in\n    tag_84:\n        /* \"#utility.yul\":4635:4707   */\n      tag_85\n        /* \"#utility.yul\":4703:4705   */\n      0x20\n        /* \"#utility.yul\":4692:4701   */\n      dup4\n        /* \"#utility.yul\":4688:4706   */\n      add\n        /* \"#utility.yul\":4679:4685   */\n      dup5\n        /* \"#utility.yul\":4635:4707   */\n      tag_47\n      jump\t// in\n    tag_85:\n        /* \"#utility.yul\":4382:4714   */\n      swap4\n      swap3\n      pop\n      pop\n      pop\n      jump\t// out\n\n    auxdata: 0xa264697066735822122036f82a9921ca01d12ee1f160389ddca976deddb55cc9ec4409d78af1c823390964736f6c634300081a0033\n}\n",
				"bytecode": {
					"linkReferences": {},
					"object": "6080604052348015600e575f80fd5b50335f60016101000a81548173ffffffffffffffffffffffffffffffffffffffff021916908373ffffffffffffffffffffffffffffffffffffffff1602179055505f805f6101000a81548160ff02191690836001811115606f57606e6078565b5b021790555060a5565b7f4e487b71000000000000000000000000000000000000000000000000000000005f52602160045260245ffd5b6104fe806100b25f395ff3fe608060405260043610610028575f3560e01c806305a8da721461002c5780638da5cb5b14610036575b5f80fd5b610034610060565b005b348015610041575f80fd5b5061004a610277565b60405161005791906102db565b60405180910390f35b3373ffffffffffffffffffffffffffffffffffffffff165f60019054906101000a900473ffffffffffffffffffffffffffffffffffffffff1673ffffffffffffffffffffffffffffffffffffffff16036100ef576040517f08c379a00000000000000000000000000000000000000000000000000000000081526004016100e69061034e565b60405180910390fd5b5f60018111156101025761010161036c565b5b5f8054906101000a900460ff1660018111156101215761012061036c565b5b14610161576040517f08c379a0000000000000000000000000000000000000000000000000000000008152600401610158906103e3565b60405180910390fd5b671bc16d674ec80000803410156101ad576040517f08c379a00000000000000000000000000000000000000000000000000000000081526004016101a49061044b565b60405180910390fd5b5f60019054906101000a900473ffffffffffffffffffffffffffffffffffffffff1673ffffffffffffffffffffffffffffffffffffffff166108fc3490811502906040515f60405180830381858888f19350505050158015610211573d5f803e3d5ffd5b5060015f806101000a81548160ff021916908360018111156102365761023561036c565b5b02179055507fba951166d42eb077151bdecb7cf6027562f04f0143b0c141b1bb0a33eef5d693333460405161026c9291906104a1565b60405180910390a150565b5f60019054906101000a900473ffffffffffffffffffffffffffffffffffffffff1681565b5f73ffffffffffffffffffffffffffffffffffffffff82169050919050565b5f6102c58261029c565b9050919050565b6102d5816102bb565b82525050565b5f6020820190506102ee5f8301846102cc565b92915050565b5f82825260208201905092915050565b7f596f752063616e277420626f6f6b20796f7572206f776e20726f6f6d000000005f82015250565b5f610338601c836102f4565b915061034382610304565b602082019050919050565b5f6020820190508181035f8301526103658161032c565b9050919050565b7f4e487b71000000000000000000000000000000000000000000000000000000005f52602160045260245ffd5b7f43757272656e746c79206f6363757069656400000000000000000000000000005f82015250565b5f6103cd6012836102f4565b91506103d882610399565b602082019050919050565b5f6020820190508181035f8301526103fa816103c1565b9050919050565b7f4e6f7420656e6f7567682065746865722070726f76696465642e0000000000005f82015250565b5f610435601a836102f4565b915061044082610401565b602082019050919050565b5f6020820190508181035f83015261046281610429565b9050919050565b5f6104738261029c565b9050919050565b61048381610469565b82525050565b5f819050919050565b61049b81610489565b82525050565b5f6040820190506104b45f83018561047a565b6104c16020830184610492565b939250505056fea264697066735822122036f82a9921ca01d12ee1f160389ddca976deddb55cc9ec4409d78af1c823390964736f6c634300081a0033",
					"opcodes": "PUSH1 0x80 PUSH1 0x40 MSTORE CALLVALUE DUP1 ISZERO PUSH1 0xE JUMPI PUSH0 DUP1 REVERT JUMPDEST POP CALLER PUSH0 PUSH1 0x1 PUSH2 0x100 EXP DUP2 SLOAD DUP2 PUSH20 0xFFFFFFFFFFFFFFFFFFFFFFFFFFFFFFFFFFFFFFFF MUL NOT AND SWAP1 DUP4 PUSH20 0xFFFFFFFFFFFFFFFFFFFFFFFFFFFFFFFFFFFFFFFF AND MUL OR SWAP1 SSTORE POP PUSH0 DUP1 PUSH0 PUSH2 0x100 EXP DUP2 SLOAD DUP2 PUSH1 0xFF MUL NOT AND SWAP1 DUP4 PUSH1 0x1 DUP2 GT ISZERO PUSH1 0x6F JUMPI PUSH1 0x6E PUSH1 0x78 JUMP JUMPDEST JUMPDEST MUL OR SWAP1 SSTORE POP PUSH1 0xA5 JUMP JUMPDEST PUSH32 0x4E487B7100000000000000000000000000000000000000000000000000000000 PUSH0 MSTORE PUSH1 0x21 PUSH1 0x4 MSTORE PUSH1 0x24 PUSH0 REVERT JUMPDEST PUSH2 0x4FE DUP1 PUSH2 0xB2 PUSH0 CODECOPY PUSH0 RETURN INVALID PUSH1 0x80 PUSH1 0x40 MSTORE PUSH1 0x4 CALLDATASIZE LT PUSH2 0x28 JUMPI PUSH0 CALLDATALOAD PUSH1 0xE0 SHR DUP1 PUSH4 0x5A8DA72 EQ PUSH2 0x2C JUMPI DUP1 PUSH4 0x8DA5CB5B EQ PUSH2 0x36 JUMPI JUMPDEST PUSH0 DUP1 REVERT JUMPDEST PUSH2 0x34 PUSH2 0x60 JUMP JUMPDEST STOP JUMPDEST CALLVALUE DUP1 ISZERO PUSH2 0x41 JUMPI PUSH0 DUP1 REVERT JUMPDEST POP PUSH2 0x4A PUSH2 0x277 JUMP JUMPDEST PUSH1 0x40 MLOAD PUSH2 0x57 SWAP2 SWAP1 PUSH2 0x2DB JUMP JUMPDEST PUSH1 0x40 MLOAD DUP1 SWAP2 SUB SWAP1 RETURN JUMPDEST CALLER PUSH20 0xFFFFFFFFFFFFFFFFFFFFFFFFFFFFFFFFFFFFFFFF AND PUSH0 PUSH1 0x1 SWAP1 SLOAD SWAP1 PUSH2 0x100 EXP SWAP1 DIV PUSH20 0xFFFFFFFFFFFFFFFFFFFFFFFFFFFFFFFFFFFFFFFF AND PUSH20 0xFFFFFFFFFFFFFFFFFFFFFFFFFFFFFFFFFFFFFFFF AND SUB PUSH2 0xEF JUMPI PUSH1 0x40 MLOAD PUSH32 0x8C379A000000000000000000000000000000000000000000000000000000000 DUP2 MSTORE PUSH1 0x4 ADD PUSH2 0xE6 SWAP1 PUSH2 0x34E JUMP JUMPDEST PUSH1 0x40 MLOAD DUP1 SWAP2 SUB SWAP1 REVERT JUMPDEST PUSH0 PUSH1 0x1 DUP2 GT ISZERO PUSH2 0x102 JUMPI PUSH2 0x101 PUSH2 0x36C JUMP JUMPDEST JUMPDEST PUSH0 DUP1 SLOAD SWAP1 PUSH2 0x100 EXP SWAP1 DIV PUSH1 0xFF AND PUSH1 0x1 DUP2 GT ISZERO PUSH2 0x121 JUMPI PUSH2 0x120 PUSH2 0x36C JUMP JUMPDEST JUMPDEST EQ PUSH2 0x161 JUMPI PUSH1 0x40 MLOAD PUSH32 0x8C379A000000000000000000000000000000000000000000000000000000000 DUP2 MSTORE PUSH1 0x4 ADD PUSH2 0x158 SWAP1 PUSH2 0x3E3 JUMP JUMPDEST PUSH1 0x40 MLOAD DUP1 SWAP2 SUB SWAP1 REVERT JUMPDEST PUSH8 0x1BC16D674EC80000 DUP1 CALLVALUE LT ISZERO PUSH2 0x1AD JUMPI PUSH1 0x40 MLOAD PUSH32 0x8C379A000000000000000000000000000000000000000000000000000000000 DUP2 MSTORE PUSH1 0x4 ADD PUSH2 0x1A4 SWAP1 PUSH2 0x44B JUMP JUMPDEST PUSH1 0x40 MLOAD DUP1 SWAP2 SUB SWAP1 REVERT JUMPDEST PUSH0 PUSH1 0x1 SWAP1 SLOAD SWAP1 PUSH2 0x100 EXP SWAP1 DIV PUSH20 0xFFFFFFFFFFFFFFFFFFFFFFFFFFFFFFFFFFFFFFFF AND PUSH20 0xFFFFFFFFFFFFFFFFFFFFFFFFFFFFFFFFFFFFFFFF AND PUSH2 0x8FC CALLVALUE SWAP1 DUP2 ISZERO MUL SWAP1 PUSH1 0x40 MLOAD PUSH0 PUSH1 0x40 MLOAD DUP1 DUP4 SUB DUP2 DUP6 DUP9 DUP9 CALL SWAP4 POP POP POP POP ISZERO DUP1 ISZERO PUSH2 0x211 JUMPI RETURNDATASIZE PUSH0 DUP1 RETURNDATACOPY RETURNDATASIZE PUSH0 REVERT JUMPDEST POP PUSH1 0x1 PUSH0 DUP1 PUSH2 0x100 EXP DUP2 SLOAD DUP2 PUSH1 0xFF MUL NOT AND SWAP1 DUP4 PUSH1 0x1 DUP2 GT ISZERO PUSH2 0x236 JUMPI PUSH2 0x235 PUSH2 0x36C JUMP JUMPDEST JUMPDEST MUL OR SWAP1 SSTORE POP PUSH32 0xBA951166D42EB077151BDECB7CF6027562F04F0143B0C141B1BB0A33EEF5D693 CALLER CALLVALUE PUSH1 0x40 MLOAD PUSH2 0x26C SWAP3 SWAP2 SWAP1 PUSH2 0x4A1 JUMP JUMPDEST PUSH1 0x40 MLOAD DUP1 SWAP2 SUB SWAP1 LOG1 POP JUMP JUMPDEST PUSH0 PUSH1 0x1 SWAP1 SLOAD SWAP1 PUSH2 0x100 EXP SWAP1 DIV PUSH20 0xFFFFFFFFFFFFFFFFFFFFFFFFFFFFFFFFFFFFFFFF AND DUP2 JUMP JUMPDEST PUSH0 PUSH20 0xFFFFFFFFFFFFFFFFFFFFFFFFFFFFFFFFFFFFFFFF DUP3 AND SWAP1 POP SWAP2 SWAP1 POP JUMP JUMPDEST PUSH0 PUSH2 0x2C5 DUP3 PUSH2 0x29C JUMP JUMPDEST SWAP1 POP SWAP2 SWAP1 POP JUMP JUMPDEST PUSH2 0x2D5 DUP2 PUSH2 0x2BB JUMP JUMPDEST DUP3 MSTORE POP POP JUMP JUMPDEST PUSH0 PUSH1 0x20 DUP3 ADD SWAP1 POP PUSH2 0x2EE PUSH0 DUP4 ADD DUP5 PUSH2 0x2CC JUMP JUMPDEST SWAP3 SWAP2 POP POP JUMP JUMPDEST PUSH0 DUP3 DUP3 MSTORE PUSH1 0x20 DUP3 ADD SWAP1 POP SWAP3 SWAP2 POP POP JUMP JUMPDEST PUSH32 0x596F752063616E277420626F6F6B20796F7572206F776E20726F6F6D00000000 PUSH0 DUP3 ADD MSTORE POP JUMP JUMPDEST PUSH0 PUSH2 0x338 PUSH1 0x1C DUP4 PUSH2 0x2F4 JUMP JUMPDEST SWAP2 POP PUSH2 0x343 DUP3 PUSH2 0x304 JUMP JUMPDEST PUSH1 0x20 DUP3 ADD SWAP1 POP SWAP2 SWAP1 POP JUMP JUMPDEST PUSH0 PUSH1 0x20 DUP3 ADD SWAP1 POP DUP2 DUP2 SUB PUSH0 DUP4 ADD MSTORE PUSH2 0x365 DUP2 PUSH2 0x32C JUMP JUMPDEST SWAP1 POP SWAP2 SWAP1 POP JUMP JUMPDEST PUSH32 0x4E487B7100000000000000000000000000000000000000000000000000000000 PUSH0 MSTORE PUSH1 0x21 PUSH1 0x4 MSTORE PUSH1 0x24 PUSH0 REVERT JUMPDEST PUSH32 0x43757272656E746C79206F636375706965640000000000000000000000000000 PUSH0 DUP3 ADD MSTORE POP JUMP JUMPDEST PUSH0 PUSH2 0x3CD PUSH1 0x12 DUP4 PUSH2 0x2F4 JUMP JUMPDEST SWAP2 POP PUSH2 0x3D8 DUP3 PUSH2 0x399 JUMP JUMPDEST PUSH1 0x20 DUP3 ADD SWAP1 POP SWAP2 SWAP1 POP JUMP JUMPDEST PUSH0 PUSH1 0x20 DUP3 ADD SWAP1 POP DUP2 DUP2 SUB PUSH0 DUP4 ADD MSTORE PUSH2 0x3FA DUP2 PUSH2 0x3C1 JUMP JUMPDEST SWAP1 POP SWAP2 SWAP1 POP JUMP JUMPDEST PUSH32 0x4E6F7420656E6F7567682065746865722070726F76696465642E000000000000 PUSH0 DUP3 ADD MSTORE POP JUMP JUMPDEST PUSH0 PUSH2 0x435 PUSH1 0x1A DUP4 PUSH2 0x2F4 JUMP JUMPDEST SWAP2 POP PUSH2 0x440 DUP3 PUSH2 0x401 JUMP JUMPDEST PUSH1 0x20 DUP3 ADD SWAP1 POP SWAP2 SWAP1 POP JUMP JUMPDEST PUSH0 PUSH1 0x20 DUP3 ADD SWAP1 POP DUP2 DUP2 SUB PUSH0 DUP4 ADD MSTORE PUSH2 0x462 DUP2 PUSH2 0x429 JUMP JUMPDEST SWAP1 POP SWAP2 SWAP1 POP JUMP JUMPDEST PUSH0 PUSH2 0x473 DUP3 PUSH2 0x29C JUMP JUMPDEST SWAP1 POP SWAP2 SWAP1 POP JUMP JUMPDEST PUSH2 0x483 DUP2 PUSH2 0x469 JUMP JUMPDEST DUP3 MSTORE POP POP JUMP JUMPDEST PUSH0 DUP2 SWAP1 POP SWAP2 SWAP1 POP JUMP JUMPDEST PUSH2 0x49B DUP2 PUSH2 0x489 JUMP JUMPDEST DUP3 MSTORE POP POP JUMP JUMPDEST PUSH0 PUSH1 0x40 DUP3 ADD SWAP1 POP PUSH2 0x4B4 PUSH0 DUP4 ADD DUP6 PUSH2 0x47A JUMP JUMPDEST PUSH2 0x4C1 PUSH1 0x20 DUP4 ADD DUP5 PUSH2 0x492 JUMP JUMPDEST SWAP4 SWAP3 POP POP POP JUMP INVALID LOG2 PUSH5 0x6970667358 0x22 SLT KECCAK256 CALLDATASIZE 0xF8 0x2A SWAP10 0x21 0xCA ADD 0xD1 0x2E 0xE1 CALL PUSH1 0x38 SWAP14 0xDC 0xA9 PUSH23 0xDEDDB55CC9EC4409D78AF1C823390964736F6C63430008 BYTE STOP CALLER "
				},
				"gasEstimates": {
					"creation": {
						"codeDepositCost": "255600",
						"executionCost": "48904",
						"totalCost": "304504"
					},
					"external": {
						"book()": "infinite",
						"owner()": "2558"
					}
				},
				"methodIdentifiers": {
					"book()": "05a8da72",
					"owner()": "8da5cb5b"
				}
			},
			"storageLayout": {
				"storage": [
					{
						"astId": 7,
						"contract": "Hotel/HotelRoom.sol:HotelRoom",
						"label": "currentStatus",
						"offset": 0,
						"slot": "0",
						"type": "t_enum(Statuses)4"
					},
					{
						"astId": 15,
						"contract": "Hotel/HotelRoom.sol:HotelRoom",
						"label": "owner",
						"offset": 1,
						"slot": "0",
						"type": "t_address_payable"
					}
				],
				"types": {
					"t_address_payable": {
						"encoding": "inplace",
						"label": "address payable",
						"numberOfBytes": "20"
					},
					"t_enum(Statuses)4": {
						"encoding": "inplace",
						"label": "enum HotelRoom.Statuses",
						"numberOfBytes": "1"
					}
				}
			},
			"userdoc": {
				"kind": "user",
				"methods": {},
				"version": 1
			}
		}
	}
}